{"abi":[{"type":"function","name":"invoiceId","inputs":[{"name":"payee","type":"address","internalType":"address"},{"name":"amount","type":"uint256","internalType":"uint256"},{"name":"nonce","type":"uint256","internalType":"uint256"}],"outputs":[{"name":"","type":"bytes32","internalType":"bytes32"}],"stateMutability":"pure"},{"type":"function","name":"paid","inputs":[{"name":"","type":"bytes32","internalType":"bytes32"}],"outputs":[{"name":"","type":"bool","internalType":"bool"}],"stateMutability":"view"},{"type":"function","name":"pay","inputs":[{"name":"payee","type":"address","internalType":"address"},{"name":"amount","type":"uint256","internalType":"uint256"},{"name":"nonce","type":"uint256","internalType":"uint256"}],"outputs":[],"stateMutability":"payable"},{"type":"event","name":"InvoicePaid","inputs":[{"name":"id","type":"bytes32","indexed":true,"internalType":"bytes32"},{"name":"payee","type":"address","indexed":true,"internalType":"address"},{"name":"payer","type":"address","indexed":true,"internalType":"address"},{"name":"amount","type":"uint256","indexed":false,"internalType":"uint256"},{"name":"nonce","type":"uint256","indexed":false,"internalType":"uint256"}],"anonymous":false}],"bytecode":{"object":"0x6080604052348015600e575f5ffd5b506107858061001c5f395ff3fe608060405260043610610033575f3560e01c8063563f53d5146100375780635f06534614610073578063add89bb21461008f575b5f5ffd5b348015610042575f5ffd5b5061005d600480360381019061005891906103db565b6100cb565b60405161006a9190610443565b60405180910390f35b61008d600480360381019061008891906103db565b610100565b005b34801561009a575f5ffd5b506100b560048036038101906100b09190610486565b61032e565b6040516100c291906104cb565b60405180910390f35b5f8383836040516020016100e193929190610502565b6040516020818303038152906040528051906020012090509392505050565b5f8211610142576040517f08c379a000000000000000000000000000000000000000000000000000000000815260040161013990610591565b60405180910390fd5b813414610184576040517f08c379a000000000000000000000000000000000000000000000000000000000815260040161017b906105f9565b60405180910390fd5b5f6101908484846100cb565b90505f5f8281526020019081526020015f205f9054906101000a900460ff16156101ef576040517f08c379a00000000000000000000000000000000000000000000000000000000081526004016101e690610661565b60405180910390fd5b60015f5f8381526020019081526020015f205f6101000a81548160ff0219169083151502179055505f8473ffffffffffffffffffffffffffffffffffffffff163460405161023c906106ac565b5f6040518083038185875af1925050503d805f8114610276576040519150601f19603f3d011682016040523d82523d5f602084013e61027b565b606091505b50509050806102bf576040517f08c379a00000000000000000000000000000000000000000000000000000000081526004016102b69061070a565b60405180910390fd5b3373ffffffffffffffffffffffffffffffffffffffff168573ffffffffffffffffffffffffffffffffffffffff16837f9615dc2d5d2739a2b83f1e48261a6f845a996c0a54209b3044193556e74414cc878760405161031f929190610728565b60405180910390a45050505050565b5f602052805f5260405f205f915054906101000a900460ff1681565b5f5ffd5b5f73ffffffffffffffffffffffffffffffffffffffff82169050919050565b5f6103778261034e565b9050919050565b6103878161036d565b8114610391575f5ffd5b50565b5f813590506103a28161037e565b92915050565b5f819050919050565b6103ba816103a8565b81146103c4575f5ffd5b50565b5f813590506103d5816103b1565b92915050565b5f5f5f606084860312156103f2576103f161034a565b5b5f6103ff86828701610394565b9350506020610410868287016103c7565b9250506040610421868287016103c7565b9150509250925092565b5f819050919050565b61043d8161042b565b82525050565b5f6020820190506104565f830184610434565b92915050565b6104658161042b565b811461046f575f5ffd5b50565b5f813590506104808161045c565b92915050565b5f6020828403121561049b5761049a61034a565b5b5f6104a884828501610472565b91505092915050565b5f8115159050919050565b6104c5816104b1565b82525050565b5f6020820190506104de5f8301846104bc565b92915050565b6104ed8161036d565b82525050565b6104fc816103a8565b82525050565b5f6060820190506105155f8301866104e4565b61052260208301856104f3565b61052f60408301846104f3565b949350505050565b5f82825260208201905092915050565b7f5749523a207a65726f20616d6f756e74000000000000000000000000000000005f82015250565b5f61057b601083610537565b915061058682610547565b602082019050919050565b5f6020820190508181035f8301526105a88161056f565b9050919050565b7f5749523a2077726f6e6720616d6f756e740000000000000000000000000000005f82015250565b5f6105e3601183610537565b91506105ee826105af565b602082019050919050565b5f6020820190508181035f830152610610816105d7565b9050919050565b7f5749523a20616c726561647920706169640000000000000000000000000000005f82015250565b5f61064b601183610537565b915061065682610617565b602082019050919050565b5f6020820190508181035f8301526106788161063f565b9050919050565b5f81905092915050565b50565b5f6106975f8361067f565b91506106a282610689565b5f82019050919050565b5f6106b68261068c565b9150819050919050565b7f5749523a20666f7277617264206661696c6564000000000000000000000000005f82015250565b5f6106f4601383610537565b91506106ff826106c0565b602082019050919050565b5f6020820190508181035f830152610721816106e8565b9050919050565b5f60408201905061073b5f8301856104f3565b61074860208301846104f3565b939250505056fea2646970667358221220fa24e86e34aeb37fe046021d8ba21c4a8f1f1ac9e34e630aa756d088d88c987064736f6c63430008230033","linkReferences":{}},"methodIdentifiers":{"invoiceId(address,uint256,uint256)":"563f53d5","paid(bytes32)":"add89bb2","pay(address,uint256,uint256)":"5f065346"},"id":0}