{"abi":[{"type":"function","name":"create","inputs":[{"name":"salt","type":"uint256","internalType":"uint256"},{"name":"amount","type":"uint256","internalType":"uint256"},{"name":"memo","type":"string","internalType":"string"}],"outputs":[{"name":"id","type":"bytes32","internalType":"bytes32"}],"stateMutability":"nonpayable"},{"type":"function","name":"getInvoice","inputs":[{"name":"id","type":"bytes32","internalType":"bytes32"}],"outputs":[{"name":"payee","type":"address","internalType":"address"},{"name":"amount","type":"uint256","internalType":"uint256"},{"name":"paid","type":"bool","internalType":"bool"},{"name":"payer","type":"address","internalType":"address"},{"name":"memo","type":"string","internalType":"string"},{"name":"createdAt","type":"uint64","internalType":"uint64"}],"stateMutability":"view"},{"type":"function","name":"getInvoiceIds","inputs":[{"name":"creator","type":"address","internalType":"address"}],"outputs":[{"name":"","type":"bytes32[]","internalType":"bytes32[]"}],"stateMutability":"view"},{"type":"function","name":"invoiceId","inputs":[{"name":"creator","type":"address","internalType":"address"},{"name":"salt","type":"uint256","internalType":"uint256"}],"outputs":[{"name":"","type":"bytes32","internalType":"bytes32"}],"stateMutability":"pure"},{"type":"function","name":"pay","inputs":[{"name":"id","type":"bytes32","internalType":"bytes32"}],"outputs":[],"stateMutability":"payable"},{"type":"event","name":"InvoiceCreated","inputs":[{"name":"id","type":"bytes32","indexed":true,"internalType":"bytes32"},{"name":"payee","type":"address","indexed":true,"internalType":"address"},{"name":"amount","type":"uint256","indexed":false,"internalType":"uint256"},{"name":"memo","type":"string","indexed":false,"internalType":"string"}],"anonymous":false},{"type":"event","name":"InvoicePaid","inputs":[{"name":"id","type":"bytes32","indexed":true,"internalType":"bytes32"},{"name":"payee","type":"address","indexed":true,"internalType":"address"},{"name":"payer","type":"address","indexed":true,"internalType":"address"},{"name":"amount","type":"uint256","indexed":false,"internalType":"uint256"}],"anonymous":false}],"bytecode":{"object":"0x6080604052348015600e575f5ffd5b506114a08061001c5f395ff3fe608060405260043610610049575f3560e01c806338df46da1461004d5780634b068c78146100895780638609cad1146100c5578063912d1a61146100e1578063cb802c8b1461011d575b5f5ffd5b348015610058575f5ffd5b50610073600480360381019061006e9190610a0a565b61015e565b6040516100809190610af5565b60405180910390f35b348015610094575f5ffd5b506100af60048036038101906100aa9190610ba9565b6101f1565b6040516100bc9190610c29565b60405180910390f35b6100df60048036038101906100da9190610c6c565b61054e565b005b3480156100ec575f5ffd5b5061010760048036038101906101029190610c97565b610842565b6040516101149190610c29565b60405180910390f35b348015610128575f5ffd5b50610143600480360381019061013e9190610c6c565b610874565b60405161015596959493929190610d9f565b60405180910390f35b606060015f8373ffffffffffffffffffffffffffffffffffffffff1673ffffffffffffffffffffffffffffffffffffffff1681526020019081526020015f208054806020026020016040519081016040528092919081815260200182805480156101e557602002820191905f5260205f20905b8154815260200190600101908083116101d1575b50505050509050919050565b5f5f8411610234576040517f08c379a000000000000000000000000000000000000000000000000000000000815260040161022b90610e4f565b60405180910390fd5b61023e3386610842565b90505f73ffffffffffffffffffffffffffffffffffffffff165f5f8381526020019081526020015f205f015f9054906101000a900473ffffffffffffffffffffffffffffffffffffffff1673ffffffffffffffffffffffffffffffffffffffff16146102df576040517f08c379a00000000000000000000000000000000000000000000000000000000081526004016102d690610eb7565b60405180910390fd5b6040518060c001604052803373ffffffffffffffffffffffffffffffffffffffff1681526020018581526020015f151581526020015f73ffffffffffffffffffffffffffffffffffffffff16815260200184848080601f0160208091040260200160405190810160405280939291908181526020018383808284375f81840152601f19601f8201169050808301925050505050505081526020014267ffffffffffffffff168152505f5f8381526020019081526020015f205f820151815f015f6101000a81548173ffffffffffffffffffffffffffffffffffffffff021916908373ffffffffffffffffffffffffffffffffffffffff160217905550602082015181600101556040820151816002015f6101000a81548160ff02191690831515021790555060608201518160020160016101000a81548173ffffffffffffffffffffffffffffffffffffffff021916908373ffffffffffffffffffffffffffffffffffffffff16021790555060808201518160030190816104609190611110565b5060a0820151816004015f6101000a81548167ffffffffffffffff021916908367ffffffffffffffff16021790555090505060015f3373ffffffffffffffffffffffffffffffffffffffff1673ffffffffffffffffffffffffffffffffffffffff1681526020019081526020015f2081908060018154018082558091505060019003905f5260205f20015f90919091909150553373ffffffffffffffffffffffffffffffffffffffff16817fb79795838dbfed9c25c6cbc0e4f1c67acd692f8e546da1d8814885a35253f58886868660405161053e93929190611219565b60405180910390a3949350505050565b5f5f5f8381526020019081526020015f2090505f73ffffffffffffffffffffffffffffffffffffffff16815f015f9054906101000a900473ffffffffffffffffffffffffffffffffffffffff1673ffffffffffffffffffffffffffffffffffffffff16036105f1576040517f08c379a00000000000000000000000000000000000000000000000000000000081526004016105e890611293565b60405180910390fd5b806002015f9054906101000a900460ff1615610642576040517f08c379a0000000000000000000000000000000000000000000000000000000008152600401610639906112fb565b60405180910390fd5b80600101543414610688576040517f08c379a000000000000000000000000000000000000000000000000000000000815260040161067f90611363565b60405180910390fd5b6001816002015f6101000a81548160ff021916908315150217905550338160020160016101000a81548173ffffffffffffffffffffffffffffffffffffffff021916908373ffffffffffffffffffffffffffffffffffffffff1602179055505f815f015f9054906101000a900473ffffffffffffffffffffffffffffffffffffffff1673ffffffffffffffffffffffffffffffffffffffff163460405161072e906113ae565b5f6040518083038185875af1925050503d805f8114610768576040519150601f19603f3d011682016040523d82523d5f602084013e61076d565b606091505b50509050806107b1576040517f08c379a00000000000000000000000000000000000000000000000000000000081526004016107a89061140c565b60405180910390fd5b3373ffffffffffffffffffffffffffffffffffffffff16825f015f9054906101000a900473ffffffffffffffffffffffffffffffffffffffff1673ffffffffffffffffffffffffffffffffffffffff16847f787fcac3b50ab9534e1ef2e289dfa2a75eb9481de9f9061d47732320747515828560010154604051610835919061142a565b60405180910390a4505050565b5f8282604051602001610856929190611443565b60405160208183030381529060405280519060200120905092915050565b5f5f5f5f60605f5f5f5f8981526020019081526020015f209050805f015f9054906101000a900473ffffffffffffffffffffffffffffffffffffffff168160010154826002015f9054906101000a900460ff168360020160019054906101000a900473ffffffffffffffffffffffffffffffffffffffff1684600301856004015f9054906101000a900467ffffffffffffffff1681805461091490610f2f565b80601f016020809104026020016040519081016040528092919081815260200182805461094090610f2f565b801561098b5780601f106109625761010080835404028352916020019161098b565b820191905f5260205f20905b81548152906001019060200180831161096e57829003601f168201915b505050505091509650965096509650965096505091939550919395565b5f5ffd5b5f5ffd5b5f73ffffffffffffffffffffffffffffffffffffffff82169050919050565b5f6109d9826109b0565b9050919050565b6109e9816109cf565b81146109f3575f5ffd5b50565b5f81359050610a04816109e0565b92915050565b5f60208284031215610a1f57610a1e6109a8565b5b5f610a2c848285016109f6565b91505092915050565b5f81519050919050565b5f82825260208201905092915050565b5f819050602082019050919050565b5f819050919050565b610a7081610a5e565b82525050565b5f610a818383610a67565b60208301905092915050565b5f602082019050919050565b5f610aa382610a35565b610aad8185610a3f565b9350610ab883610a4f565b805f5b83811015610ae8578151610acf8882610a76565b9750610ada83610a8d565b925050600181019050610abb565b5085935050505092915050565b5f6020820190508181035f830152610b0d8184610a99565b905092915050565b5f819050919050565b610b2781610b15565b8114610b31575f5ffd5b50565b5f81359050610b4281610b1e565b92915050565b5f5ffd5b5f5ffd5b5f5ffd5b5f5f83601f840112610b6957610b68610b48565b5b8235905067ffffffffffffffff811115610b8657610b85610b4c565b5b602083019150836001820283011115610ba257610ba1610b50565b5b9250929050565b5f5f5f5f60608587031215610bc157610bc06109a8565b5b5f610bce87828801610b34565b9450506020610bdf87828801610b34565b935050604085013567ffffffffffffffff811115610c0057610bff6109ac565b5b610c0c87828801610b54565b925092505092959194509250565b610c2381610a5e565b82525050565b5f602082019050610c3c5f830184610c1a565b92915050565b610c4b81610a5e565b8114610c55575f5ffd5b50565b5f81359050610c6681610c42565b92915050565b5f60208284031215610c8157610c806109a8565b5b5f610c8e84828501610c58565b91505092915050565b5f5f60408385031215610cad57610cac6109a8565b5b5f610cba858286016109f6565b9250506020610ccb85828601610b34565b9150509250929050565b610cde816109cf565b82525050565b610ced81610b15565b82525050565b5f8115159050919050565b610d0781610cf3565b82525050565b5f81519050919050565b5f82825260208201905092915050565b8281835e5f83830152505050565b5f601f19601f8301169050919050565b5f610d4f82610d0d565b610d598185610d17565b9350610d69818560208601610d27565b610d7281610d35565b840191505092915050565b5f67ffffffffffffffff82169050919050565b610d9981610d7d565b82525050565b5f60c082019050610db25f830189610cd5565b610dbf6020830188610ce4565b610dcc6040830187610cfe565b610dd96060830186610cd5565b8181036080830152610deb8185610d45565b9050610dfa60a0830184610d90565b979650505050505050565b7f5749523a207a65726f20616d6f756e74000000000000000000000000000000005f82015250565b5f610e39601083610d17565b9150610e4482610e05565b602082019050919050565b5f6020820190508181035f830152610e6681610e2d565b9050919050565b7f5749523a206964206578697374730000000000000000000000000000000000005f82015250565b5f610ea1600e83610d17565b9150610eac82610e6d565b602082019050919050565b5f6020820190508181035f830152610ece81610e95565b9050919050565b7f4e487b71000000000000000000000000000000000000000000000000000000005f52604160045260245ffd5b7f4e487b71000000000000000000000000000000000000000000000000000000005f52602260045260245ffd5b5f6002820490506001821680610f4657607f821691505b602082108103610f5957610f58610f02565b5b50919050565b5f819050815f5260205f209050919050565b5f6020601f8301049050919050565b5f82821b905092915050565b5f60088302610fbb7fffffffffffffffffffffffffffffffffffffffffffffffffffffffffffffffff82610f80565b610fc58683610f80565b95508019841693508086168417925050509392505050565b5f819050919050565b5f611000610ffb610ff684610b15565b610fdd565b610b15565b9050919050565b5f819050919050565b61101983610fe6565b61102d61102582611007565b848454610f8c565b825550505050565b5f5f905090565b611044611035565b61104f818484611010565b505050565b5f5b828110156110755761106a5f82840161103c565b600181019050611056565b505050565b601f8211156110c857828211156110c75761109481610f5f565b61109d83610f71565b6110a685610f71565b60208610156110b3575f90505b8083016110c282840382611054565b505050505b5b505050565b5f82821c905092915050565b5f6110e85f19846008026110cd565b1980831691505092915050565b5f61110083836110d9565b9150826002028217905092915050565b61111982610d0d565b67ffffffffffffffff81111561113257611131610ed5565b5b61113c8254610f2f565b61114782828561107a565b5f60209050601f831160018114611178575f8415611166578287015190505b61117085826110f5565b8655506111d7565b601f19841661118686610f5f565b5f5b828110156111ad57848901518255600182019150602085019450602081019050611188565b868310156111ca57848901516111c6601f8916826110d9565b8355505b6001600288020188555050505b505050505050565b828183375f83830152505050565b5f6111f88385610d17565b93506112058385846111df565b61120e83610d35565b840190509392505050565b5f60408201905061122c5f830186610ce4565b818103602083015261123f8184866111ed565b9050949350505050565b7f5749523a206e6f20696e766f69636500000000000000000000000000000000005f82015250565b5f61127d600f83610d17565b915061128882611249565b602082019050919050565b5f6020820190508181035f8301526112aa81611271565b9050919050565b7f5749523a20616c726561647920706169640000000000000000000000000000005f82015250565b5f6112e5601183610d17565b91506112f0826112b1565b602082019050919050565b5f6020820190508181035f830152611312816112d9565b9050919050565b7f5749523a2077726f6e6720616d6f756e740000000000000000000000000000005f82015250565b5f61134d601183610d17565b915061135882611319565b602082019050919050565b5f6020820190508181035f83015261137a81611341565b9050919050565b5f81905092915050565b50565b5f6113995f83611381565b91506113a48261138b565b5f82019050919050565b5f6113b88261138e565b9150819050919050565b7f5749523a20666f7277617264206661696c6564000000000000000000000000005f82015250565b5f6113f6601383610d17565b9150611401826113c2565b602082019050919050565b5f6020820190508181035f830152611423816113ea565b9050919050565b5f60208201905061143d5f830184610ce4565b92915050565b5f6040820190506114565f830185610cd5565b6114636020830184610ce4565b939250505056fea2646970667358221220e38261f01ea74d8f4669162c497cf5e19f0b2ca405187b9f9aa7968c3e5b386564736f6c63430008230033","linkReferences":{}},"methodIdentifiers":{"create(uint256,uint256,string)":"4b068c78","getInvoice(bytes32)":"cb802c8b","getInvoiceIds(address)":"38df46da","invoiceId(address,uint256)":"912d1a61","pay(bytes32)":"8609cad1"},"id":0}