{"abi":[{"type":"constructor","inputs":[],"stateMutability":"nonpayable"},{"type":"function","name":"admin","inputs":[],"outputs":[{"name":"","type":"address","internalType":"address"}],"stateMutability":"view"},{"type":"function","name":"allIds","inputs":[{"name":"start","type":"uint256","internalType":"uint256"},{"name":"count","type":"uint256","internalType":"uint256"}],"outputs":[{"name":"page","type":"bytes32[]","internalType":"bytes32[]"}],"stateMutability":"view"},{"type":"function","name":"cancel","inputs":[{"name":"id","type":"bytes32","internalType":"bytes32"}],"outputs":[],"stateMutability":"nonpayable"},{"type":"function","name":"create","inputs":[{"name":"salt","type":"uint256","internalType":"uint256"},{"name":"kind","type":"uint8","internalType":"enum WooshStrategyRegistry.Kind"},{"name":"recipient","type":"address","internalType":"address"},{"name":"tokenOut","type":"address","internalType":"address"},{"name":"amountPerPeriod","type":"uint256","internalType":"uint256"},{"name":"intervalSeconds","type":"uint64","internalType":"uint64"},{"name":"periodsTotal","type":"uint32","internalType":"uint32"}],"outputs":[{"name":"id","type":"bytes32","internalType":"bytes32"}],"stateMutability":"payable"},{"type":"function","name":"executePayment","inputs":[{"name":"id","type":"bytes32","internalType":"bytes32"}],"outputs":[],"stateMutability":"nonpayable"},{"type":"function","name":"executor","inputs":[],"outputs":[{"name":"","type":"address","internalType":"address"}],"stateMutability":"view"},{"type":"function","name":"fund","inputs":[{"name":"id","type":"bytes32","internalType":"bytes32"}],"outputs":[],"stateMutability":"payable"},{"type":"function","name":"getStrategiesBatch","inputs":[{"name":"ids","type":"bytes32[]","internalType":"bytes32[]"}],"outputs":[{"name":"out","type":"tuple[]","internalType":"struct WooshStrategyRegistry.Strategy[]","components":[{"name":"owner","type":"address","internalType":"address"},{"name":"kind","type":"uint8","internalType":"enum WooshStrategyRegistry.Kind"},{"name":"recipient","type":"address","internalType":"address"},{"name":"tokenOut","type":"address","internalType":"address"},{"name":"amountPerPeriod","type":"uint256","internalType":"uint256"},{"name":"intervalSeconds","type":"uint64","internalType":"uint64"},{"name":"periodsTotal","type":"uint32","internalType":"uint32"},{"name":"periodsDone","type":"uint32","internalType":"uint32"},{"name":"nextRunAt","type":"uint64","internalType":"uint64"},{"name":"balance","type":"uint256","internalType":"uint256"},{"name":"status","type":"uint8","internalType":"enum WooshStrategyRegistry.Status"},{"name":"createdAt","type":"uint64","internalType":"uint64"}]}],"stateMutability":"view"},{"type":"function","name":"getStrategy","inputs":[{"name":"id","type":"bytes32","internalType":"bytes32"}],"outputs":[{"name":"","type":"tuple","internalType":"struct WooshStrategyRegistry.Strategy","components":[{"name":"owner","type":"address","internalType":"address"},{"name":"kind","type":"uint8","internalType":"enum WooshStrategyRegistry.Kind"},{"name":"recipient","type":"address","internalType":"address"},{"name":"tokenOut","type":"address","internalType":"address"},{"name":"amountPerPeriod","type":"uint256","internalType":"uint256"},{"name":"intervalSeconds","type":"uint64","internalType":"uint64"},{"name":"periodsTotal","type":"uint32","internalType":"uint32"},{"name":"periodsDone","type":"uint32","internalType":"uint32"},{"name":"nextRunAt","type":"uint64","internalType":"uint64"},{"name":"balance","type":"uint256","internalType":"uint256"},{"name":"status","type":"uint8","internalType":"enum WooshStrategyRegistry.Status"},{"name":"createdAt","type":"uint64","internalType":"uint64"}]}],"stateMutability":"view"},{"type":"function","name":"getStrategyIds","inputs":[{"name":"owner","type":"address","internalType":"address"}],"outputs":[{"name":"","type":"bytes32[]","internalType":"bytes32[]"}],"stateMutability":"view"},{"type":"function","name":"pause","inputs":[{"name":"id","type":"bytes32","internalType":"bytes32"}],"outputs":[],"stateMutability":"nonpayable"},{"type":"function","name":"releaseForSwap","inputs":[{"name":"id","type":"bytes32","internalType":"bytes32"}],"outputs":[],"stateMutability":"nonpayable"},{"type":"function","name":"resume","inputs":[{"name":"id","type":"bytes32","internalType":"bytes32"}],"outputs":[],"stateMutability":"nonpayable"},{"type":"function","name":"setExecutor","inputs":[{"name":"newExecutor","type":"address","internalType":"address"}],"outputs":[],"stateMutability":"nonpayable"},{"type":"function","name":"strategyId","inputs":[{"name":"owner","type":"address","internalType":"address"},{"name":"salt","type":"uint256","internalType":"uint256"}],"outputs":[{"name":"","type":"bytes32","internalType":"bytes32"}],"stateMutability":"pure"},{"type":"function","name":"totalStrategies","inputs":[],"outputs":[{"name":"","type":"uint256","internalType":"uint256"}],"stateMutability":"view"},{"type":"function","name":"transferAdmin","inputs":[{"name":"newAdmin","type":"address","internalType":"address"}],"outputs":[],"stateMutability":"nonpayable"},{"type":"event","name":"AdminTransferred","inputs":[{"name":"admin","type":"address","indexed":true,"internalType":"address"}],"anonymous":false},{"type":"event","name":"ExecutorChanged","inputs":[{"name":"executor","type":"address","indexed":true,"internalType":"address"}],"anonymous":false},{"type":"event","name":"PaymentExecuted","inputs":[{"name":"id","type":"bytes32","indexed":true,"internalType":"bytes32"},{"name":"recipient","type":"address","indexed":true,"internalType":"address"},{"name":"amount","type":"uint256","indexed":false,"internalType":"uint256"},{"name":"periodsDone","type":"uint32","indexed":false,"internalType":"uint32"},{"name":"nextRunAt","type":"uint64","indexed":false,"internalType":"uint64"}],"anonymous":false},{"type":"event","name":"StrategyCancelled","inputs":[{"name":"id","type":"bytes32","indexed":true,"internalType":"bytes32"},{"name":"owner","type":"address","indexed":true,"internalType":"address"},{"name":"refunded","type":"uint256","indexed":false,"internalType":"uint256"}],"anonymous":false},{"type":"event","name":"StrategyCreated","inputs":[{"name":"id","type":"bytes32","indexed":true,"internalType":"bytes32"},{"name":"owner","type":"address","indexed":true,"internalType":"address"},{"name":"kind","type":"uint8","indexed":false,"internalType":"enum WooshStrategyRegistry.Kind"},{"name":"recipient","type":"address","indexed":false,"internalType":"address"},{"name":"tokenOut","type":"address","indexed":false,"internalType":"address"},{"name":"amountPerPeriod","type":"uint256","indexed":false,"internalType":"uint256"},{"name":"intervalSeconds","type":"uint64","indexed":false,"internalType":"uint64"},{"name":"periodsTotal","type":"uint32","indexed":false,"internalType":"uint32"},{"name":"funded","type":"uint256","indexed":false,"internalType":"uint256"}],"anonymous":false},{"type":"event","name":"StrategyFunded","inputs":[{"name":"id","type":"bytes32","indexed":true,"internalType":"bytes32"},{"name":"from","type":"address","indexed":true,"internalType":"address"},{"name":"amount","type":"uint256","indexed":false,"internalType":"uint256"},{"name":"newBalance","type":"uint256","indexed":false,"internalType":"uint256"}],"anonymous":false},{"type":"event","name":"StrategyStatusChanged","inputs":[{"name":"id","type":"bytes32","indexed":true,"internalType":"bytes32"},{"name":"status","type":"uint8","indexed":false,"internalType":"enum WooshStrategyRegistry.Status"}],"anonymous":false},{"type":"event","name":"SwapReleased","inputs":[{"name":"id","type":"bytes32","indexed":true,"internalType":"bytes32"},{"name":"owner","type":"address","indexed":true,"internalType":"address"},{"name":"tokenOut","type":"address","indexed":false,"internalType":"address"},{"name":"amountIn","type":"uint256","indexed":false,"internalType":"uint256"},{"name":"periodsDone","type":"uint32","indexed":false,"internalType":"uint32"},{"name":"nextRunAt","type":"uint64","indexed":false,"internalType":"uint64"}],"anonymous":false}],"bytecode":{"object":"0x608060405260016005553480156013575f5ffd5b50335f5f6101000a81548173ffffffffffffffffffffffffffffffffffffffff021916908373ffffffffffffffffffffffffffffffffffffffff160217905550613e97806100605f395ff3fe6080604052600436106100fd575f3560e01c8063c34c08e511610094578063ed56531a11610063578063ed56531a1461032f578063f851a44014610357578063f96d7b8014610381578063fa7a2962146103ab578063ff822a1b146103d3576100fd565b8063c34c08e514610279578063c4d252f5146102a3578063d7c0a571146102cb578063d9ec992b14610307576100fd565b8063545b70dc116100d0578063545b70dc146101c957806375829def1461020557806390713f301461022d578063bf14c1191461025d576100fd565b806309b2a9ed146101015780631c3c0ea81461013d57806328c84bbd14610165578063418bb260146101a1575b5f5ffd5b34801561010c575f5ffd5b5061012760048036038101906101229190612a17565b61040f565b6040516101349190612d4f565b60405180910390f35b348015610148575f5ffd5b50610163600480360381019061015e9190612d99565b610749565b005b348015610170575f5ffd5b5061018b60048036038101906101869190612df7565b61085d565b6040516101989190612f16565b60405180910390f35b3480156101ac575f5ffd5b506101c760048036038101906101c29190612df7565b610af0565b005b3480156101d4575f5ffd5b506101ef60048036038101906101ea9190612d99565b610d50565b6040516101fc9190612fe7565b60405180910390f35b348015610210575f5ffd5b5061022b60048036038101906102269190612d99565b610de3565b005b610247600480360381019061024291906130a8565b610f64565b6040516102549190613154565b60405180910390f35b61027760048036038101906102729190612df7565b6115f2565b005b348015610284575f5ffd5b5061028d611948565b60405161029a919061317c565b60405180910390f35b3480156102ae575f5ffd5b506102c960048036038101906102c49190612df7565b61196d565b005b3480156102d6575f5ffd5b506102f160048036038101906102ec9190613195565b611ce0565b6040516102fe9190613154565b60405180910390f35b348015610312575f5ffd5b5061032d60048036038101906103289190612df7565b611d12565b005b34801561033a575f5ffd5b5061035560048036038101906103509190612df7565b611f92565b005b348015610362575f5ffd5b5061036b612115565b604051610378919061317c565b60405180910390f35b34801561038c575f5ffd5b50610395612139565b6040516103a291906131e2565b60405180910390f35b3480156103b6575f5ffd5b506103d160048036038101906103cc9190612df7565b612145565b005b3480156103de575f5ffd5b506103f960048036038101906103f491906131fb565b612368565b6040516104069190612fe7565b60405180910390f35b60608282905067ffffffffffffffff81111561042e5761042d613239565b5b60405190808252806020026020018201604052801561046757816020015b6104546128c9565b81526020019060019003908161044c5790505b5090505f5f90505b838390508110156107425760025f8585848181106104905761048f613266565b5b9050602002013581526020019081526020015f20604051806101800160405290815f82015f9054906101000a900473ffffffffffffffffffffffffffffffffffffffff1673ffffffffffffffffffffffffffffffffffffffff1673ffffffffffffffffffffffffffffffffffffffff1681526020015f820160149054906101000a900460ff16600181111561052857610527612aca565b5b600181111561053a57610539612aca565b5b8152602001600182015f9054906101000a900473ffffffffffffffffffffffffffffffffffffffff1673ffffffffffffffffffffffffffffffffffffffff1673ffffffffffffffffffffffffffffffffffffffff168152602001600282015f9054906101000a900473ffffffffffffffffffffffffffffffffffffffff1673ffffffffffffffffffffffffffffffffffffffff1673ffffffffffffffffffffffffffffffffffffffff16815260200160038201548152602001600482015f9054906101000a900467ffffffffffffffff1667ffffffffffffffff1667ffffffffffffffff1681526020016004820160089054906101000a900463ffffffff1663ffffffff1663ffffffff16815260200160048201600c9054906101000a900463ffffffff1663ffffffff1663ffffffff1681526020016004820160109054906101000a900467ffffffffffffffff1667ffffffffffffffff1667ffffffffffffffff16815260200160058201548152602001600682015f9054906101000a900460ff1660048111156106cf576106ce612aca565b5b60048111156106e1576106e0612aca565b5b81526020016006820160019054906101000a900467ffffffffffffffff1667ffffffffffffffff1667ffffffffffffffff168152505082828151811061072a57610729613266565b5b6020026020010181905250808060010191505061046f565b5092915050565b5f5f9054906101000a900473ffffffffffffffffffffffffffffffffffffffff1673ffffffffffffffffffffffffffffffffffffffff163373ffffffffffffffffffffffffffffffffffffffff16146107d7576040517f08c379a00000000000000000000000000000000000000000000000000000000081526004016107ce906132ed565b60405180910390fd5b8060015f6101000a81548173ffffffffffffffffffffffffffffffffffffffff021916908373ffffffffffffffffffffffffffffffffffffffff1602179055508073ffffffffffffffffffffffffffffffffffffffff167f408d9e356c18d649d8224da0d79ce6ee4aa98ecd1b418caa86cc110341dcfcd660405160405180910390a250565b6108656128c9565b60025f8381526020019081526020015f20604051806101800160405290815f82015f9054906101000a900473ffffffffffffffffffffffffffffffffffffffff1673ffffffffffffffffffffffffffffffffffffffff1673ffffffffffffffffffffffffffffffffffffffff1681526020015f820160149054906101000a900460ff1660018111156108fa576108f9612aca565b5b600181111561090c5761090b612aca565b5b8152602001600182015f9054906101000a900473ffffffffffffffffffffffffffffffffffffffff1673ffffffffffffffffffffffffffffffffffffffff1673ffffffffffffffffffffffffffffffffffffffff168152602001600282015f9054906101000a900473ffffffffffffffffffffffffffffffffffffffff1673ffffffffffffffffffffffffffffffffffffffff1673ffffffffffffffffffffffffffffffffffffffff16815260200160038201548152602001600482015f9054906101000a900467ffffffffffffffff1667ffffffffffffffff1667ffffffffffffffff1681526020016004820160089054906101000a900463ffffffff1663ffffffff1663ffffffff16815260200160048201600c9054906101000a900463ffffffff1663ffffffff1663ffffffff1681526020016004820160109054906101000a900467ffffffffffffffff1667ffffffffffffffff1667ffffffffffffffff16815260200160058201548152602001600682015f9054906101000a900460ff166004811115610aa157610aa0612aca565b5b6004811115610ab357610ab2612aca565b5b81526020016006820160019054906101000a900467ffffffffffffffff1667ffffffffffffffff1667ffffffffffffffff16815250509050919050565b60015f9054906101000a900473ffffffffffffffffffffffffffffffffffffffff1673ffffffffffffffffffffffffffffffffffffffff163373ffffffffffffffffffffffffffffffffffffffff1614610b7f576040517f08c379a0000000000000000000000000000000000000000000000000000000008152600401610b7690613355565b60405180910390fd5b600160055414610bc4576040517f08c379a0000000000000000000000000000000000000000000000000000000008152600401610bbb906133bd565b60405180910390fd5b60026005819055505f60025f8381526020019081526020015f209050610beb82825f6124a7565b5f816001015f9054906101000a900473ffffffffffffffffffffffffffffffffffffffff1690505f826003015490508173ffffffffffffffffffffffffffffffffffffffff16847f02bd7f72f9e91c20d8425d15cb172bc528dfd8c9c477ed48127705f0965059f68386600401600c9054906101000a900463ffffffff168760040160109054906101000a900467ffffffffffffffff16604051610c91939291906133f9565b60405180910390a35f8273ffffffffffffffffffffffffffffffffffffffff1682604051610cbe9061345b565b5f6040518083038185875af1925050503d805f8114610cf8576040519150601f19603f3d011682016040523d82523d5f602084013e610cfd565b606091505b5050905080610d41576040517f08c379a0000000000000000000000000000000000000000000000000000000008152600401610d38906134b9565b60405180910390fd5b50505050600160058190555050565b606060035f8373ffffffffffffffffffffffffffffffffffffffff1673ffffffffffffffffffffffffffffffffffffffff1681526020019081526020015f20805480602002602001604051908101604052809291908181526020018280548015610dd757602002820191905f5260205f20905b815481526020019060010190808311610dc3575b50505050509050919050565b5f5f9054906101000a900473ffffffffffffffffffffffffffffffffffffffff1673ffffffffffffffffffffffffffffffffffffffff163373ffffffffffffffffffffffffffffffffffffffff1614610e71576040517f08c379a0000000000000000000000000000000000000000000000000000000008152600401610e68906132ed565b60405180910390fd5b5f73ffffffffffffffffffffffffffffffffffffffff168173ffffffffffffffffffffffffffffffffffffffff1603610edf576040517f08c379a0000000000000000000000000000000000000000000000000000000008152600401610ed690613521565b60405180910390fd5b805f5f6101000a81548173ffffffffffffffffffffffffffffffffffffffff021916908373ffffffffffffffffffffffffffffffffffffffff1602179055508073ffffffffffffffffffffffffffffffffffffffff167fe22b4f506b7da9a528a95d7063a6cde8d2b6268773b1f7f65c00057531704a3d60405160405180910390a250565b5f5f8411610fa7576040517f08c379a0000000000000000000000000000000000000000000000000000000008152600401610f9e90613589565b60405180910390fd5b5f8367ffffffffffffffff1611610ff3576040517f08c379a0000000000000000000000000000000000000000000000000000000008152600401610fea906135f1565b60405180910390fd5b83341015611036576040517f08c379a000000000000000000000000000000000000000000000000000000000815260040161102d90613659565b60405180910390fd5b5f600181111561104957611048612aca565b5b87600181111561105c5761105b612aca565b5b036110d4575f73ffffffffffffffffffffffffffffffffffffffff168673ffffffffffffffffffffffffffffffffffffffff16036110cf576040517f08c379a00000000000000000000000000000000000000000000000000000000081526004016110c6906136c1565b60405180910390fd5b611143565b5f73ffffffffffffffffffffffffffffffffffffffff168573ffffffffffffffffffffffffffffffffffffffff1603611142576040517f08c379a000000000000000000000000000000000000000000000000000000000815260040161113990613729565b60405180910390fd5b5b61114d3389611ce0565b90505f73ffffffffffffffffffffffffffffffffffffffff1660025f8381526020019081526020015f205f015f9054906101000a900473ffffffffffffffffffffffffffffffffffffffff1673ffffffffffffffffffffffffffffffffffffffff16146111ef576040517f08c379a00000000000000000000000000000000000000000000000000000000081526004016111e690613791565b60405180910390fd5b6040518061018001604052803373ffffffffffffffffffffffffffffffffffffffff16815260200188600181111561122a57611229612aca565b5b81526020018773ffffffffffffffffffffffffffffffffffffffff1681526020018673ffffffffffffffffffffffffffffffffffffffff1681526020018581526020018467ffffffffffffffff1681526020018363ffffffff1681526020015f63ffffffff1681526020014267ffffffffffffffff1681526020013481526020015f60048111156112be576112bd612aca565b5b81526020014267ffffffffffffffff1681525060025f8381526020019081526020015f205f820151815f015f6101000a81548173ffffffffffffffffffffffffffffffffffffffff021916908373ffffffffffffffffffffffffffffffffffffffff1602179055506020820151815f0160146101000a81548160ff021916908360018111156113505761134f612aca565b5b02179055506040820151816001015f6101000a81548173ffffffffffffffffffffffffffffffffffffffff021916908373ffffffffffffffffffffffffffffffffffffffff1602179055506060820151816002015f6101000a81548173ffffffffffffffffffffffffffffffffffffffff021916908373ffffffffffffffffffffffffffffffffffffffff1602179055506080820151816003015560a0820151816004015f6101000a81548167ffffffffffffffff021916908367ffffffffffffffff16021790555060c08201518160040160086101000a81548163ffffffff021916908363ffffffff16021790555060e082015181600401600c6101000a81548163ffffffff021916908363ffffffff1602179055506101008201518160040160106101000a81548167ffffffffffffffff021916908367ffffffffffffffff1602179055506101208201518160050155610140820151816006015f6101000a81548160ff021916908360048111156114cd576114cc612aca565b5b02179055506101608201518160060160016101000a81548167ffffffffffffffff021916908367ffffffffffffffff16021790555090505060035f3373ffffffffffffffffffffffffffffffffffffffff1673ffffffffffffffffffffffffffffffffffffffff1681526020019081526020015f2081908060018154018082558091505060019003905f5260205f20015f9091909190915055600481908060018154018082558091505060019003905f5260205f20015f90919091909150553373ffffffffffffffffffffffffffffffffffffffff16817f18cd79b3cbc925aae6342e41244106db2cda99acac1de75f7b10b43636305949898989898989346040516115df97969594939291906137be565b60405180910390a3979650505050505050565b5f60025f8381526020019081526020015f2090503373ffffffffffffffffffffffffffffffffffffffff16815f015f9054906101000a900473ffffffffffffffffffffffffffffffffffffffff1673ffffffffffffffffffffffffffffffffffffffff1614611696576040517f08c379a000000000000000000000000000000000000000000000000000000000815260040161168d90613875565b60405180910390fd5b5f60048111156116a9576116a8612aca565b5b816006015f9054906101000a900460ff1660048111156116cc576116cb612aca565b5b148061170c5750600160048111156116e7576116e6612aca565b5b816006015f9054906101000a900460ff16600481111561170a57611709612aca565b5b145b8061174a575060048081111561172557611724612aca565b5b816006015f9054906101000a900460ff16600481111561174857611747612aca565b5b145b611789576040517f08c379a0000000000000000000000000000000000000000000000000000000008152600401611780906138dd565b60405180910390fd5b5f34116117cb576040517f08c379a00000000000000000000000000000000000000000000000000000000081526004016117c290613945565b60405180910390fd5b34816005015f8282546117de9190613990565b925050819055503373ffffffffffffffffffffffffffffffffffffffff16827fe55e399e254a30efc18ce5af88c4ada6522f3220e8ef1a79f94f5475c5671d7f3484600501546040516118329291906139c3565b60405180910390a360048081111561184d5761184c612aca565b5b816006015f9054906101000a900460ff1660048111156118705761186f612aca565b5b14801561188557508060030154816005015410155b15611944575f816006015f6101000a81548160ff021916908360048111156118b0576118af612aca565b5b0217905550428160040160109054906101000a900467ffffffffffffffff1667ffffffffffffffff16101561190b57428160040160106101000a81548167ffffffffffffffff021916908367ffffffffffffffff1602179055505b817f0cff6495091dd347736117c43e5a51e665d061cd77fd8fad68fbedbf2b53c51e5f60405161193b91906139f9565b60405180910390a25b5050565b60015f9054906101000a900473ffffffffffffffffffffffffffffffffffffffff1681565b6001600554146119b2576040517f08c379a00000000000000000000000000000000000000000000000000000000081526004016119a9906133bd565b60405180910390fd5b60026005819055505f60025f8381526020019081526020015f2090503373ffffffffffffffffffffffffffffffffffffffff16815f015f9054906101000a900473ffffffffffffffffffffffffffffffffffffffff1673ffffffffffffffffffffffffffffffffffffffff1614611a5e576040517f08c379a0000000000000000000000000000000000000000000000000000000008152600401611a5590613875565b60405180910390fd5b5f6004811115611a7157611a70612aca565b5b816006015f9054906101000a900460ff166004811115611a9457611a93612aca565b5b1480611ad4575060016004811115611aaf57611aae612aca565b5b816006015f9054906101000a900460ff166004811115611ad257611ad1612aca565b5b145b80611b125750600480811115611aed57611aec612aca565b5b816006015f9054906101000a900460ff166004811115611b1057611b0f612aca565b5b145b611b51576040517f08c379a0000000000000000000000000000000000000000000000000000000008152600401611b48906138dd565b60405180910390fd5b5f816005015490505f82600501819055506003826006015f6101000a81548160ff02191690836004811115611b8957611b88612aca565b5b0217905550815f015f9054906101000a900473ffffffffffffffffffffffffffffffffffffffff1673ffffffffffffffffffffffffffffffffffffffff16837fa218bb1a37d9f112db5b9c37d2c5845cb677c23b6023816657f602f9f467932283604051611bf791906131e2565b60405180910390a35f811115611cd3575f825f015f9054906101000a900473ffffffffffffffffffffffffffffffffffffffff1673ffffffffffffffffffffffffffffffffffffffff1682604051611c4e9061345b565b5f6040518083038185875af1925050503d805f8114611c88576040519150601f19603f3d011682016040523d82523d5f602084013e611c8d565b606091505b5050905080611cd1576040517f08c379a0000000000000000000000000000000000000000000000000000000008152600401611cc890613a5c565b60405180910390fd5b505b5050600160058190555050565b5f8282604051602001611cf4929190613a7a565b60405160208183030381529060405280519060200120905092915050565b60015f9054906101000a900473ffffffffffffffffffffffffffffffffffffffff1673ffffffffffffffffffffffffffffffffffffffff163373ffffffffffffffffffffffffffffffffffffffff1614611da1576040517f08c379a0000000000000000000000000000000000000000000000000000000008152600401611d9890613355565b60405180910390fd5b600160055414611de6576040517f08c379a0000000000000000000000000000000000000000000000000000000008152600401611ddd906133bd565b60405180910390fd5b60026005819055505f60025f8381526020019081526020015f209050611e0e828260016124a7565b5f81600301549050815f015f9054906101000a900473ffffffffffffffffffffffffffffffffffffffff1673ffffffffffffffffffffffffffffffffffffffff16837f9cba5b99e13b724917fc10f2f68608f520eec0c9a74c63283b136d6090e94579846002015f9054906101000a900473ffffffffffffffffffffffffffffffffffffffff168486600401600c9054906101000a900463ffffffff168760040160109054906101000a900467ffffffffffffffff16604051611ed49493929190613aa1565b60405180910390a35f3373ffffffffffffffffffffffffffffffffffffffff1682604051611f019061345b565b5f6040518083038185875af1925050503d805f8114611f3b576040519150601f19603f3d011682016040523d82523d5f602084013e611f40565b606091505b5050905080611f84576040517f08c379a0000000000000000000000000000000000000000000000000000000008152600401611f7b90613b2e565b60405180910390fd5b505050600160058190555050565b5f60025f8381526020019081526020015f2090503373ffffffffffffffffffffffffffffffffffffffff16815f015f9054906101000a900473ffffffffffffffffffffffffffffffffffffffff1673ffffffffffffffffffffffffffffffffffffffff1614612036576040517f08c379a000000000000000000000000000000000000000000000000000000000815260040161202d90613875565b60405180910390fd5b5f600481111561204957612048612aca565b5b816006015f9054906101000a900460ff16600481111561206c5761206b612aca565b5b146120ac576040517f08c379a00000000000000000000000000000000000000000000000000000000081526004016120a390613b96565b60405180910390fd5b6001816006015f6101000a81548160ff021916908360048111156120d3576120d2612aca565b5b0217905550817f0cff6495091dd347736117c43e5a51e665d061cd77fd8fad68fbedbf2b53c51e600160405161210991906139f9565b60405180910390a25050565b5f5f9054906101000a900473ffffffffffffffffffffffffffffffffffffffff1681565b5f600480549050905090565b5f60025f8381526020019081526020015f2090503373ffffffffffffffffffffffffffffffffffffffff16815f015f9054906101000a900473ffffffffffffffffffffffffffffffffffffffff1673ffffffffffffffffffffffffffffffffffffffff16146121e9576040517f08c379a00000000000000000000000000000000000000000000000000000000081526004016121e090613875565b60405180910390fd5b600160048111156121fd576121fc612aca565b5b816006015f9054906101000a900460ff1660048111156122205761221f612aca565b5b14612260576040517f08c379a000000000000000000000000000000000000000000000000000000000815260040161225790613bfe565b60405180910390fd5b8060030154816005015410156122ab576040517f08c379a00000000000000000000000000000000000000000000000000000000081526004016122a290613c66565b60405180910390fd5b5f816006015f6101000a81548160ff021916908360048111156122d1576122d0612aca565b5b0217905550428160040160109054906101000a900467ffffffffffffffff1667ffffffffffffffff16101561232c57428160040160106101000a81548167ffffffffffffffff021916908367ffffffffffffffff1602179055505b817f0cff6495091dd347736117c43e5a51e665d061cd77fd8fad68fbedbf2b53c51e5f60405161235c91906139f9565b60405180910390a25050565b60605f60048054905090508084106123cb575f67ffffffffffffffff81111561239457612393613239565b5b6040519080825280602002602001820160405280156123c25781602001602082028036833780820191505090505b509150506124a1565b5f83856123d89190613990565b9050818111156123e6578190505b84816123f29190613c84565b67ffffffffffffffff81111561240b5761240a613239565b5b6040519080825280602002602001820160405280156124395781602001602082028036833780820191505090505b5092505f8590505b8181101561249d576004818154811061245d5761245c613266565b5b905f5260205f2001548487836124739190613c84565b8151811061248457612483613266565b5b6020026020010181815250508080600101915050612441565b5050505b92915050565b5f73ffffffffffffffffffffffffffffffffffffffff16825f015f9054906101000a900473ffffffffffffffffffffffffffffffffffffffff1673ffffffffffffffffffffffffffffffffffffffff1603612537576040517f08c379a000000000000000000000000000000000000000000000000000000000815260040161252e90613d01565b60405180910390fd5b80600181111561254a57612549612aca565b5b825f0160149054906101000a900460ff16600181111561256d5761256c612aca565b5b146125ad576040517f08c379a00000000000000000000000000000000000000000000000000000000081526004016125a490613d69565b60405180910390fd5b5f60048111156125c0576125bf612aca565b5b826006015f9054906101000a900460ff1660048111156125e3576125e2612aca565b5b14612623576040517f08c379a000000000000000000000000000000000000000000000000000000000815260040161261a90613b96565b60405180910390fd5b8160040160109054906101000a900467ffffffffffffffff1667ffffffffffffffff16421015612688576040517f08c379a000000000000000000000000000000000000000000000000000000000815260040161267f90613dd1565b60405180910390fd5b8160030154826005015410156126d3576040517f08c379a00000000000000000000000000000000000000000000000000000000081526004016126ca90613c66565b60405180910390fd5b8160030154826005015f8282546126ea9190613c84565b92505081905550600182600401600c8282829054906101000a900463ffffffff166127159190613def565b92506101000a81548163ffffffff021916908363ffffffff160217905550816004015f9054906101000a900467ffffffffffffffff16426127569190613e26565b8260040160106101000a81548167ffffffffffffffff021916908367ffffffffffffffff1602179055505f8260040160089054906101000a900463ffffffff1663ffffffff16141580156127de57508160040160089054906101000a900463ffffffff1663ffffffff1682600401600c9054906101000a900463ffffffff1663ffffffff1610155b1561284d576002826006015f6101000a81548160ff0219169083600481111561280a57612809612aca565b5b0217905550827f0cff6495091dd347736117c43e5a51e665d061cd77fd8fad68fbedbf2b53c51e600260405161284091906139f9565b60405180910390a26128c4565b8160030154826005015410156128c3576004826006015f6101000a81548160ff0219169083600481111561288457612883612aca565b5b0217905550827f0cff6495091dd347736117c43e5a51e665d061cd77fd8fad68fbedbf2b53c51e60046040516128ba91906139f9565b60405180910390a25b5b505050565b6040518061018001604052805f73ffffffffffffffffffffffffffffffffffffffff1681526020015f600181111561290457612903612aca565b5b81526020015f73ffffffffffffffffffffffffffffffffffffffff1681526020015f73ffffffffffffffffffffffffffffffffffffffff1681526020015f81526020015f67ffffffffffffffff1681526020015f63ffffffff1681526020015f63ffffffff1681526020015f67ffffffffffffffff1681526020015f81526020015f600481111561299857612997612aca565b5b81526020015f67ffffffffffffffff1681525090565b5f5ffd5b5f5ffd5b5f5ffd5b5f5ffd5b5f5ffd5b5f5f83601f8401126129d7576129d66129b6565b5b8235905067ffffffffffffffff8111156129f4576129f36129ba565b5b602083019150836020820283011115612a1057612a0f6129be565b5b9250929050565b5f5f60208385031215612a2d57612a2c6129ae565b5b5f83013567ffffffffffffffff811115612a4a57612a496129b2565b5b612a56858286016129c2565b92509250509250929050565b5f81519050919050565b5f82825260208201905092915050565b5f819050602082019050919050565b5f73ffffffffffffffffffffffffffffffffffffffff82169050919050565b5f612ab482612a8b565b9050919050565b612ac481612aaa565b82525050565b7f4e487b71000000000000000000000000000000000000000000000000000000005f52602160045260245ffd5b60028110612b0857612b07612aca565b5b50565b5f819050612b1882612af7565b919050565b5f612b2782612b0b565b9050919050565b612b3781612b1d565b82525050565b5f819050919050565b612b4f81612b3d565b82525050565b5f67ffffffffffffffff82169050919050565b612b7181612b55565b82525050565b5f63ffffffff82169050919050565b612b8f81612b77565b82525050565b60058110612ba657612ba5612aca565b5b50565b5f819050612bb682612b95565b919050565b5f612bc582612ba9565b9050919050565b612bd581612bbb565b82525050565b61018082015f820151612bf05f850182612abb565b506020820151612c036020850182612b2e565b506040820151612c166040850182612abb565b506060820151612c296060850182612abb565b506080820151612c3c6080850182612b46565b5060a0820151612c4f60a0850182612b68565b5060c0820151612c6260c0850182612b86565b5060e0820151612c7560e0850182612b86565b50610100820151612c8a610100850182612b68565b50610120820151612c9f610120850182612b46565b50610140820151612cb4610140850182612bcc565b50610160820151612cc9610160850182612b68565b50505050565b5f612cda8383612bdb565b6101808301905092915050565b5f602082019050919050565b5f612cfd82612a62565b612d078185612a6c565b9350612d1283612a7c565b805f5b83811015612d42578151612d298882612ccf565b9750612d3483612ce7565b925050600181019050612d15565b5085935050505092915050565b5f6020820190508181035f830152612d678184612cf3565b905092915050565b612d7881612aaa565b8114612d82575f5ffd5b50565b5f81359050612d9381612d6f565b92915050565b5f60208284031215612dae57612dad6129ae565b5b5f612dbb84828501612d85565b91505092915050565b5f819050919050565b612dd681612dc4565b8114612de0575f5ffd5b50565b5f81359050612df181612dcd565b92915050565b5f60208284031215612e0c57612e0b6129ae565b5b5f612e1984828501612de3565b91505092915050565b61018082015f820151612e375f850182612abb565b506020820151612e4a6020850182612b2e565b506040820151612e5d6040850182612abb565b506060820151612e706060850182612abb565b506080820151612e836080850182612b46565b5060a0820151612e9660a0850182612b68565b5060c0820151612ea960c0850182612b86565b5060e0820151612ebc60e0850182612b86565b50610100820151612ed1610100850182612b68565b50610120820151612ee6610120850182612b46565b50610140820151612efb610140850182612bcc565b50610160820151612f10610160850182612b68565b50505050565b5f61018082019050612f2a5f830184612e22565b92915050565b5f81519050919050565b5f82825260208201905092915050565b5f819050602082019050919050565b612f6281612dc4565b82525050565b5f612f738383612f59565b60208301905092915050565b5f602082019050919050565b5f612f9582612f30565b612f9f8185612f3a565b9350612faa83612f4a565b805f5b83811015612fda578151612fc18882612f68565b9750612fcc83612f7f565b925050600181019050612fad565b5085935050505092915050565b5f6020820190508181035f830152612fff8184612f8b565b905092915050565b61301081612b3d565b811461301a575f5ffd5b50565b5f8135905061302b81613007565b92915050565b6002811061303d575f5ffd5b50565b5f8135905061304e81613031565b92915050565b61305d81612b55565b8114613067575f5ffd5b50565b5f8135905061307881613054565b92915050565b61308781612b77565b8114613091575f5ffd5b50565b5f813590506130a28161307e565b92915050565b5f5f5f5f5f5f5f60e0888a0312156130c3576130c26129ae565b5b5f6130d08a828b0161301d565b97505060206130e18a828b01613040565b96505060406130f28a828b01612d85565b95505060606131038a828b01612d85565b94505060806131148a828b0161301d565b93505060a06131258a828b0161306a565b92505060c06131368a828b01613094565b91505092959891949750929550565b61314e81612dc4565b82525050565b5f6020820190506131675f830184613145565b92915050565b61317681612aaa565b82525050565b5f60208201905061318f5f83018461316d565b92915050565b5f5f604083850312156131ab576131aa6129ae565b5b5f6131b885828601612d85565b92505060206131c98582860161301d565b9150509250929050565b6131dc81612b3d565b82525050565b5f6020820190506131f55f8301846131d3565b92915050565b5f5f60408385031215613211576132106129ae565b5b5f61321e8582860161301d565b925050602061322f8582860161301d565b9150509250929050565b7f4e487b71000000000000000000000000000000000000000000000000000000005f52604160045260245ffd5b7f4e487b71000000000000000000000000000000000000000000000000000000005f52603260045260245ffd5b5f82825260208201905092915050565b7f5753523a206e6f742061646d696e0000000000000000000000000000000000005f82015250565b5f6132d7600e83613293565b91506132e2826132a3565b602082019050919050565b5f6020820190508181035f830152613304816132cb565b9050919050565b7f5753523a206e6f74206578656375746f720000000000000000000000000000005f82015250565b5f61333f601183613293565b915061334a8261330b565b602082019050919050565b5f6020820190508181035f83015261336c81613333565b9050919050565b7f5753523a207265656e7472616e740000000000000000000000000000000000005f82015250565b5f6133a7600e83613293565b91506133b282613373565b602082019050919050565b5f6020820190508181035f8301526133d48161339b565b9050919050565b6133e481612b77565b82525050565b6133f381612b55565b82525050565b5f60608201905061340c5f8301866131d3565b61341960208301856133db565b61342660408301846133ea565b949350505050565b5f81905092915050565b50565b5f6134465f8361342e565b915061345182613438565b5f82019050919050565b5f6134658261343b565b9150819050919050565b7f5753523a207472616e73666572206661696c65640000000000000000000000005f82015250565b5f6134a3601483613293565b91506134ae8261346f565b602082019050919050565b5f6020820190508181035f8301526134d081613497565b9050919050565b7f5753523a207a65726f2061646d696e00000000000000000000000000000000005f82015250565b5f61350b600f83613293565b9150613516826134d7565b602082019050919050565b5f6020820190508181035f830152613538816134ff565b9050919050565b7f5753523a207a65726f20616d6f756e74000000000000000000000000000000005f82015250565b5f613573601083613293565b915061357e8261353f565b602082019050919050565b5f6020820190508181035f8301526135a081613567565b9050919050565b7f5753523a207a65726f20696e74657276616c00000000000000000000000000005f82015250565b5f6135db601283613293565b91506135e6826135a7565b602082019050919050565b5f6020820190508181035f830152613608816135cf565b9050919050565b7f5753523a20756e64657266756e646564000000000000000000000000000000005f82015250565b5f613643601083613293565b915061364e8261360f565b602082019050919050565b5f6020820190508181035f83015261367081613637565b9050919050565b7f5753523a206e6f20726563697069656e740000000000000000000000000000005f82015250565b5f6136ab601183613293565b91506136b682613677565b602082019050919050565b5f6020820190508181035f8301526136d88161369f565b9050919050565b7f5753523a206e6f20746f6b656e4f7574000000000000000000000000000000005f82015250565b5f613713601083613293565b915061371e826136df565b602082019050919050565b5f6020820190508181035f83015261374081613707565b9050919050565b7f5753523a206964206578697374730000000000000000000000000000000000005f82015250565b5f61377b600e83613293565b915061378682613747565b602082019050919050565b5f6020820190508181035f8301526137a88161376f565b9050919050565b6137b881612b1d565b82525050565b5f60e0820190506137d15f83018a6137af565b6137de602083018961316d565b6137eb604083018861316d565b6137f860608301876131d3565b61380560808301866133ea565b61381260a08301856133db565b61381f60c08301846131d3565b98975050505050505050565b7f5753523a206e6f74206f776e65720000000000000000000000000000000000005f82015250565b5f61385f600e83613293565b915061386a8261382b565b602082019050919050565b5f6020820190508181035f83015261388c81613853565b9050919050565b7f5753523a20636c6f7365640000000000000000000000000000000000000000005f82015250565b5f6138c7600b83613293565b91506138d282613893565b602082019050919050565b5f6020820190508181035f8301526138f4816138bb565b9050919050565b7f5753523a207a65726f00000000000000000000000000000000000000000000005f82015250565b5f61392f600983613293565b915061393a826138fb565b602082019050919050565b5f6020820190508181035f83015261395c81613923565b9050919050565b7f4e487b71000000000000000000000000000000000000000000000000000000005f52601160045260245ffd5b5f61399a82612b3d565b91506139a583612b3d565b92508282019050808211156139bd576139bc613963565b5b92915050565b5f6040820190506139d65f8301856131d3565b6139e360208301846131d3565b9392505050565b6139f381612bbb565b82525050565b5f602082019050613a0c5f8301846139ea565b92915050565b7f5753523a20726566756e64206661696c656400000000000000000000000000005f82015250565b5f613a46601283613293565b9150613a5182613a12565b602082019050919050565b5f6020820190508181035f830152613a7381613a3a565b9050919050565b5f604082019050613a8d5f83018561316d565b613a9a60208301846131d3565b9392505050565b5f608082019050613ab45f83018761316d565b613ac160208301866131d3565b613ace60408301856133db565b613adb60608301846133ea565b95945050505050565b7f5753523a2072656c65617365206661696c6564000000000000000000000000005f82015250565b5f613b18601383613293565b9150613b2382613ae4565b602082019050919050565b5f6020820190508181035f830152613b4581613b0c565b9050919050565b7f5753523a206e6f742061637469766500000000000000000000000000000000005f82015250565b5f613b80600f83613293565b9150613b8b82613b4c565b602082019050919050565b5f6020820190508181035f830152613bad81613b74565b9050919050565b7f5753523a206e6f742070617573656400000000000000000000000000000000005f82015250565b5f613be8600f83613293565b9150613bf382613bb4565b602082019050919050565b5f6020820190508181035f830152613c1581613bdc565b9050919050565b7f5753523a20696e73756666696369656e742062616c616e6365000000000000005f82015250565b5f613c50601983613293565b9150613c5b82613c1c565b602082019050919050565b5f6020820190508181035f830152613c7d81613c44565b9050919050565b5f613c8e82612b3d565b9150613c9983612b3d565b9250828203905081811115613cb157613cb0613963565b5b92915050565b7f5753523a206e6f207374726174656779000000000000000000000000000000005f82015250565b5f613ceb601083613293565b9150613cf682613cb7565b602082019050919050565b5f6020820190508181035f830152613d1881613cdf565b9050919050565b7f5753523a2077726f6e67206b696e6400000000000000000000000000000000005f82015250565b5f613d53600f83613293565b9150613d5e82613d1f565b602082019050919050565b5f6020820190508181035f830152613d8081613d47565b9050919050565b7f5753523a206e6f742064756500000000000000000000000000000000000000005f82015250565b5f613dbb600c83613293565b9150613dc682613d87565b602082019050919050565b5f6020820190508181035f830152613de881613daf565b9050919050565b5f613df982612b77565b9150613e0483612b77565b9250828201905063ffffffff811115613e2057613e1f613963565b5b92915050565b5f613e3082612b55565b9150613e3b83612b55565b9250828201905067ffffffffffffffff811115613e5b57613e5a613963565b5b9291505056fea26469706673582212207a42b48ef2c978071ca329c369629cf7f99d9c310d0845a902348c71524a4bf664736f6c634300081e0033","linkReferences":{}},"methodIdentifiers":{"admin()":"f851a440","allIds(uint256,uint256)":"ff822a1b","cancel(bytes32)":"c4d252f5","create(uint256,uint8,address,address,uint256,uint64,uint32)":"90713f30","executePayment(bytes32)":"418bb260","executor()":"c34c08e5","fund(bytes32)":"bf14c119","getStrategiesBatch(bytes32[])":"09b2a9ed","getStrategy(bytes32)":"28c84bbd","getStrategyIds(address)":"545b70dc","pause(bytes32)":"ed56531a","releaseForSwap(bytes32)":"d9ec992b","resume(bytes32)":"fa7a2962","setExecutor(address)":"1c3c0ea8","strategyId(address,uint256)":"d7c0a571","totalStrategies()":"f96d7b80","transferAdmin(address)":"75829def"},"id":0}