{"abi":[{"type":"constructor","inputs":[],"stateMutability":"nonpayable"},{"type":"function","name":"admin","inputs":[],"outputs":[{"name":"","type":"address","internalType":"address"}],"stateMutability":"view"},{"type":"function","name":"allIds","inputs":[{"name":"start","type":"uint256","internalType":"uint256"},{"name":"count","type":"uint256","internalType":"uint256"}],"outputs":[{"name":"page","type":"bytes32[]","internalType":"bytes32[]"}],"stateMutability":"view"},{"type":"function","name":"cancel","inputs":[{"name":"id","type":"bytes32","internalType":"bytes32"}],"outputs":[],"stateMutability":"nonpayable"},{"type":"function","name":"create","inputs":[{"name":"salt","type":"uint256","internalType":"uint256"},{"name":"kind","type":"uint8","internalType":"enum WooshStrategyRegistry.Kind"},{"name":"recipient","type":"address","internalType":"address"},{"name":"tokenOut","type":"address","internalType":"address"},{"name":"amountPerPeriod","type":"uint256","internalType":"uint256"},{"name":"intervalSeconds","type":"uint64","internalType":"uint64"},{"name":"periodsTotal","type":"uint32","internalType":"uint32"}],"outputs":[{"name":"id","type":"bytes32","internalType":"bytes32"}],"stateMutability":"payable"},{"type":"function","name":"executePayment","inputs":[{"name":"id","type":"bytes32","internalType":"bytes32"}],"outputs":[],"stateMutability":"nonpayable"},{"type":"function","name":"executor","inputs":[],"outputs":[{"name":"","type":"address","internalType":"address"}],"stateMutability":"view"},{"type":"function","name":"fund","inputs":[{"name":"id","type":"bytes32","internalType":"bytes32"}],"outputs":[],"stateMutability":"payable"},{"type":"function","name":"getStrategy","inputs":[{"name":"id","type":"bytes32","internalType":"bytes32"}],"outputs":[{"name":"","type":"tuple","internalType":"struct WooshStrategyRegistry.Strategy","components":[{"name":"owner","type":"address","internalType":"address"},{"name":"kind","type":"uint8","internalType":"enum WooshStrategyRegistry.Kind"},{"name":"recipient","type":"address","internalType":"address"},{"name":"tokenOut","type":"address","internalType":"address"},{"name":"amountPerPeriod","type":"uint256","internalType":"uint256"},{"name":"intervalSeconds","type":"uint64","internalType":"uint64"},{"name":"periodsTotal","type":"uint32","internalType":"uint32"},{"name":"periodsDone","type":"uint32","internalType":"uint32"},{"name":"nextRunAt","type":"uint64","internalType":"uint64"},{"name":"balance","type":"uint256","internalType":"uint256"},{"name":"status","type":"uint8","internalType":"enum WooshStrategyRegistry.Status"},{"name":"createdAt","type":"uint64","internalType":"uint64"}]}],"stateMutability":"view"},{"type":"function","name":"getStrategyIds","inputs":[{"name":"owner","type":"address","internalType":"address"}],"outputs":[{"name":"","type":"bytes32[]","internalType":"bytes32[]"}],"stateMutability":"view"},{"type":"function","name":"pause","inputs":[{"name":"id","type":"bytes32","internalType":"bytes32"}],"outputs":[],"stateMutability":"nonpayable"},{"type":"function","name":"releaseForSwap","inputs":[{"name":"id","type":"bytes32","internalType":"bytes32"}],"outputs":[],"stateMutability":"nonpayable"},{"type":"function","name":"resume","inputs":[{"name":"id","type":"bytes32","internalType":"bytes32"}],"outputs":[],"stateMutability":"nonpayable"},{"type":"function","name":"setExecutor","inputs":[{"name":"newExecutor","type":"address","internalType":"address"}],"outputs":[],"stateMutability":"nonpayable"},{"type":"function","name":"strategyId","inputs":[{"name":"owner","type":"address","internalType":"address"},{"name":"salt","type":"uint256","internalType":"uint256"}],"outputs":[{"name":"","type":"bytes32","internalType":"bytes32"}],"stateMutability":"pure"},{"type":"function","name":"totalStrategies","inputs":[],"outputs":[{"name":"","type":"uint256","internalType":"uint256"}],"stateMutability":"view"},{"type":"event","name":"ExecutorChanged","inputs":[{"name":"executor","type":"address","indexed":true,"internalType":"address"}],"anonymous":false},{"type":"event","name":"PaymentExecuted","inputs":[{"name":"id","type":"bytes32","indexed":true,"internalType":"bytes32"},{"name":"recipient","type":"address","indexed":true,"internalType":"address"},{"name":"amount","type":"uint256","indexed":false,"internalType":"uint256"},{"name":"periodsDone","type":"uint32","indexed":false,"internalType":"uint32"},{"name":"nextRunAt","type":"uint64","indexed":false,"internalType":"uint64"}],"anonymous":false},{"type":"event","name":"StrategyCancelled","inputs":[{"name":"id","type":"bytes32","indexed":true,"internalType":"bytes32"},{"name":"owner","type":"address","indexed":true,"internalType":"address"},{"name":"refunded","type":"uint256","indexed":false,"internalType":"uint256"}],"anonymous":false},{"type":"event","name":"StrategyCreated","inputs":[{"name":"id","type":"bytes32","indexed":true,"internalType":"bytes32"},{"name":"owner","type":"address","indexed":true,"internalType":"address"},{"name":"kind","type":"uint8","indexed":false,"internalType":"enum WooshStrategyRegistry.Kind"},{"name":"recipient","type":"address","indexed":false,"internalType":"address"},{"name":"tokenOut","type":"address","indexed":false,"internalType":"address"},{"name":"amountPerPeriod","type":"uint256","indexed":false,"internalType":"uint256"},{"name":"intervalSeconds","type":"uint64","indexed":false,"internalType":"uint64"},{"name":"periodsTotal","type":"uint32","indexed":false,"internalType":"uint32"},{"name":"funded","type":"uint256","indexed":false,"internalType":"uint256"}],"anonymous":false},{"type":"event","name":"StrategyFunded","inputs":[{"name":"id","type":"bytes32","indexed":true,"internalType":"bytes32"},{"name":"from","type":"address","indexed":true,"internalType":"address"},{"name":"amount","type":"uint256","indexed":false,"internalType":"uint256"},{"name":"newBalance","type":"uint256","indexed":false,"internalType":"uint256"}],"anonymous":false},{"type":"event","name":"StrategyStatusChanged","inputs":[{"name":"id","type":"bytes32","indexed":true,"internalType":"bytes32"},{"name":"status","type":"uint8","indexed":false,"internalType":"enum WooshStrategyRegistry.Status"}],"anonymous":false},{"type":"event","name":"SwapReleased","inputs":[{"name":"id","type":"bytes32","indexed":true,"internalType":"bytes32"},{"name":"owner","type":"address","indexed":true,"internalType":"address"},{"name":"tokenOut","type":"address","indexed":false,"internalType":"address"},{"name":"amountIn","type":"uint256","indexed":false,"internalType":"uint256"},{"name":"periodsDone","type":"uint32","indexed":false,"internalType":"uint32"},{"name":"nextRunAt","type":"uint64","indexed":false,"internalType":"uint64"}],"anonymous":false}],"bytecode":{"object":"0x608060405260016005553480156013575f5ffd5b50335f5f6101000a81548173ffffffffffffffffffffffffffffffffffffffff021916908373ffffffffffffffffffffffffffffffffffffffff1602179055506134a8806100605f395ff3fe6080604052600436106100e7575f3560e01c8063c4d252f511610089578063f851a44011610058578063f851a440146102dd578063f96d7b8014610307578063fa7a296214610331578063ff822a1b14610359576100e7565b8063c4d252f514610229578063d7c0a57114610251578063d9ec992b1461028d578063ed56531a146102b5576100e7565b8063545b70dc116100c5578063545b70dc1461017757806390713f30146101b3578063bf14c119146101e3578063c34c08e5146101ff576100e7565b80631c3c0ea8146100eb57806328c84bbd14610113578063418bb2601461014f575b5f5ffd5b3480156100f6575f5ffd5b50610111600480360381019061010c91906122f2565b610395565b005b34801561011e575f5ffd5b5061013960048036038101906101349190612350565b6104a9565b604051610146919061258f565b60405180910390f35b34801561015a575f5ffd5b5061017560048036038101906101709190612350565b61073c565b005b348015610182575f5ffd5b5061019d600480360381019061019891906122f2565b61099c565b6040516101aa9190612660565b60405180910390f35b6101cd60048036038101906101c89190612721565b610a2f565b6040516101da91906127cd565b60405180910390f35b6101fd60048036038101906101f89190612350565b6110bd565b005b34801561020a575f5ffd5b506102136112cb565b60405161022091906127f5565b60405180910390f35b348015610234575f5ffd5b5061024f600480360381019061024a9190612350565b6112f0565b005b34801561025c575f5ffd5b506102776004803603810190610272919061280e565b611625565b60405161028491906127cd565b60405180910390f35b348015610298575f5ffd5b506102b360048036038101906102ae9190612350565b611657565b005b3480156102c0575f5ffd5b506102db60048036038101906102d69190612350565b6118d7565b005b3480156102e8575f5ffd5b506102f1611a5a565b6040516102fe91906127f5565b60405180910390f35b348015610312575f5ffd5b5061031b611a7e565b604051610328919061285b565b60405180910390f35b34801561033c575f5ffd5b5061035760048036038101906103529190612350565b611a8a565b005b348015610364575f5ffd5b5061037f600480360381019061037a9190612874565b611cad565b60405161038c9190612660565b60405180910390f35b5f5f9054906101000a900473ffffffffffffffffffffffffffffffffffffffff1673ffffffffffffffffffffffffffffffffffffffff163373ffffffffffffffffffffffffffffffffffffffff1614610423576040517f08c379a000000000000000000000000000000000000000000000000000000000815260040161041a9061290c565b60405180910390fd5b8060015f6101000a81548173ffffffffffffffffffffffffffffffffffffffff021916908373ffffffffffffffffffffffffffffffffffffffff1602179055508073ffffffffffffffffffffffffffffffffffffffff167f408d9e356c18d649d8224da0d79ce6ee4aa98ecd1b418caa86cc110341dcfcd660405160405180910390a250565b6104b16121af565b60025f8381526020019081526020015f20604051806101800160405290815f82015f9054906101000a900473ffffffffffffffffffffffffffffffffffffffff1673ffffffffffffffffffffffffffffffffffffffff1673ffffffffffffffffffffffffffffffffffffffff1681526020015f820160149054906101000a900460ff1660018111156105465761054561238a565b5b60018111156105585761055761238a565b5b8152602001600182015f9054906101000a900473ffffffffffffffffffffffffffffffffffffffff1673ffffffffffffffffffffffffffffffffffffffff1673ffffffffffffffffffffffffffffffffffffffff168152602001600282015f9054906101000a900473ffffffffffffffffffffffffffffffffffffffff1673ffffffffffffffffffffffffffffffffffffffff1673ffffffffffffffffffffffffffffffffffffffff16815260200160038201548152602001600482015f9054906101000a900467ffffffffffffffff1667ffffffffffffffff1667ffffffffffffffff1681526020016004820160089054906101000a900463ffffffff1663ffffffff1663ffffffff16815260200160048201600c9054906101000a900463ffffffff1663ffffffff1663ffffffff1681526020016004820160109054906101000a900467ffffffffffffffff1667ffffffffffffffff1667ffffffffffffffff16815260200160058201548152602001600682015f9054906101000a900460ff1660038111156106ed576106ec61238a565b5b60038111156106ff576106fe61238a565b5b81526020016006820160019054906101000a900467ffffffffffffffff1667ffffffffffffffff1667ffffffffffffffff16815250509050919050565b60015f9054906101000a900473ffffffffffffffffffffffffffffffffffffffff1673ffffffffffffffffffffffffffffffffffffffff163373ffffffffffffffffffffffffffffffffffffffff16146107cb576040517f08c379a00000000000000000000000000000000000000000000000000000000081526004016107c290612974565b60405180910390fd5b600160055414610810576040517f08c379a0000000000000000000000000000000000000000000000000000000008152600401610807906129dc565b60405180910390fd5b60026005819055505f60025f8381526020019081526020015f20905061083782825f611dec565b5f816001015f9054906101000a900473ffffffffffffffffffffffffffffffffffffffff1690505f826003015490508173ffffffffffffffffffffffffffffffffffffffff16847f02bd7f72f9e91c20d8425d15cb172bc528dfd8c9c477ed48127705f0965059f68386600401600c9054906101000a900463ffffffff168760040160109054906101000a900467ffffffffffffffff166040516108dd93929190612a18565b60405180910390a35f8273ffffffffffffffffffffffffffffffffffffffff168260405161090a90612a7a565b5f6040518083038185875af1925050503d805f8114610944576040519150601f19603f3d011682016040523d82523d5f602084013e610949565b606091505b505090508061098d576040517f08c379a000000000000000000000000000000000000000000000000000000000815260040161098490612ad8565b60405180910390fd5b50505050600160058190555050565b606060035f8373ffffffffffffffffffffffffffffffffffffffff1673ffffffffffffffffffffffffffffffffffffffff1681526020019081526020015f20805480602002602001604051908101604052809291908181526020018280548015610a2357602002820191905f5260205f20905b815481526020019060010190808311610a0f575b50505050509050919050565b5f5f8411610a72576040517f08c379a0000000000000000000000000000000000000000000000000000000008152600401610a6990612b40565b60405180910390fd5b5f8367ffffffffffffffff1611610abe576040517f08c379a0000000000000000000000000000000000000000000000000000000008152600401610ab590612ba8565b60405180910390fd5b83341015610b01576040517f08c379a0000000000000000000000000000000000000000000000000000000008152600401610af890612c10565b60405180910390fd5b5f6001811115610b1457610b1361238a565b5b876001811115610b2757610b2661238a565b5b03610b9f575f73ffffffffffffffffffffffffffffffffffffffff168673ffffffffffffffffffffffffffffffffffffffff1603610b9a576040517f08c379a0000000000000000000000000000000000000000000000000000000008152600401610b9190612c78565b60405180910390fd5b610c0e565b5f73ffffffffffffffffffffffffffffffffffffffff168573ffffffffffffffffffffffffffffffffffffffff1603610c0d576040517f08c379a0000000000000000000000000000000000000000000000000000000008152600401610c0490612ce0565b60405180910390fd5b5b610c183389611625565b90505f73ffffffffffffffffffffffffffffffffffffffff1660025f8381526020019081526020015f205f015f9054906101000a900473ffffffffffffffffffffffffffffffffffffffff1673ffffffffffffffffffffffffffffffffffffffff1614610cba576040517f08c379a0000000000000000000000000000000000000000000000000000000008152600401610cb190612d48565b60405180910390fd5b6040518061018001604052803373ffffffffffffffffffffffffffffffffffffffff168152602001886001811115610cf557610cf461238a565b5b81526020018773ffffffffffffffffffffffffffffffffffffffff1681526020018673ffffffffffffffffffffffffffffffffffffffff1681526020018581526020018467ffffffffffffffff1681526020018363ffffffff1681526020015f63ffffffff1681526020014267ffffffffffffffff1681526020013481526020015f6003811115610d8957610d8861238a565b5b81526020014267ffffffffffffffff1681525060025f8381526020019081526020015f205f820151815f015f6101000a81548173ffffffffffffffffffffffffffffffffffffffff021916908373ffffffffffffffffffffffffffffffffffffffff1602179055506020820151815f0160146101000a81548160ff02191690836001811115610e1b57610e1a61238a565b5b02179055506040820151816001015f6101000a81548173ffffffffffffffffffffffffffffffffffffffff021916908373ffffffffffffffffffffffffffffffffffffffff1602179055506060820151816002015f6101000a81548173ffffffffffffffffffffffffffffffffffffffff021916908373ffffffffffffffffffffffffffffffffffffffff1602179055506080820151816003015560a0820151816004015f6101000a81548167ffffffffffffffff021916908367ffffffffffffffff16021790555060c08201518160040160086101000a81548163ffffffff021916908363ffffffff16021790555060e082015181600401600c6101000a81548163ffffffff021916908363ffffffff1602179055506101008201518160040160106101000a81548167ffffffffffffffff021916908367ffffffffffffffff1602179055506101208201518160050155610140820151816006015f6101000a81548160ff02191690836003811115610f9857610f9761238a565b5b02179055506101608201518160060160016101000a81548167ffffffffffffffff021916908367ffffffffffffffff16021790555090505060035f3373ffffffffffffffffffffffffffffffffffffffff1673ffffffffffffffffffffffffffffffffffffffff1681526020019081526020015f2081908060018154018082558091505060019003905f5260205f20015f9091909190915055600481908060018154018082558091505060019003905f5260205f20015f90919091909150553373ffffffffffffffffffffffffffffffffffffffff16817f18cd79b3cbc925aae6342e41244106db2cda99acac1de75f7b10b43636305949898989898989346040516110aa9796959493929190612d75565b60405180910390a3979650505050505050565b5f60025f8381526020019081526020015f2090503373ffffffffffffffffffffffffffffffffffffffff16815f015f9054906101000a900473ffffffffffffffffffffffffffffffffffffffff1673ffffffffffffffffffffffffffffffffffffffff1614611161576040517f08c379a000000000000000000000000000000000000000000000000000000000815260040161115890612e2c565b60405180910390fd5b5f60038111156111745761117361238a565b5b816006015f9054906101000a900460ff1660038111156111975761119661238a565b5b14806111d75750600160038111156111b2576111b161238a565b5b816006015f9054906101000a900460ff1660038111156111d5576111d461238a565b5b145b611216576040517f08c379a000000000000000000000000000000000000000000000000000000000815260040161120d90612e94565b60405180910390fd5b5f3411611258576040517f08c379a000000000000000000000000000000000000000000000000000000000815260040161124f90612efc565b60405180910390fd5b34816005015f82825461126b9190612f47565b925050819055503373ffffffffffffffffffffffffffffffffffffffff16827fe55e399e254a30efc18ce5af88c4ada6522f3220e8ef1a79f94f5475c5671d7f3484600501546040516112bf929190612f7a565b60405180910390a35050565b60015f9054906101000a900473ffffffffffffffffffffffffffffffffffffffff1681565b600160055414611335576040517f08c379a000000000000000000000000000000000000000000000000000000000815260040161132c906129dc565b60405180910390fd5b60026005819055505f60025f8381526020019081526020015f2090503373ffffffffffffffffffffffffffffffffffffffff16815f015f9054906101000a900473ffffffffffffffffffffffffffffffffffffffff1673ffffffffffffffffffffffffffffffffffffffff16146113e1576040517f08c379a00000000000000000000000000000000000000000000000000000000081526004016113d890612e2c565b60405180910390fd5b5f60038111156113f4576113f361238a565b5b816006015f9054906101000a900460ff1660038111156114175761141661238a565b5b14806114575750600160038111156114325761143161238a565b5b816006015f9054906101000a900460ff1660038111156114555761145461238a565b5b145b611496576040517f08c379a000000000000000000000000000000000000000000000000000000000815260040161148d90612e94565b60405180910390fd5b5f816005015490505f82600501819055506003826006015f6101000a81548160ff021916908360038111156114ce576114cd61238a565b5b0217905550815f015f9054906101000a900473ffffffffffffffffffffffffffffffffffffffff1673ffffffffffffffffffffffffffffffffffffffff16837fa218bb1a37d9f112db5b9c37d2c5845cb677c23b6023816657f602f9f46793228360405161153c919061285b565b60405180910390a35f811115611618575f825f015f9054906101000a900473ffffffffffffffffffffffffffffffffffffffff1673ffffffffffffffffffffffffffffffffffffffff168260405161159390612a7a565b5f6040518083038185875af1925050503d805f81146115cd576040519150601f19603f3d011682016040523d82523d5f602084013e6115d2565b606091505b5050905080611616576040517f08c379a000000000000000000000000000000000000000000000000000000000815260040161160d90612feb565b60405180910390fd5b505b5050600160058190555050565b5f8282604051602001611639929190613009565b60405160208183030381529060405280519060200120905092915050565b60015f9054906101000a900473ffffffffffffffffffffffffffffffffffffffff1673ffffffffffffffffffffffffffffffffffffffff163373ffffffffffffffffffffffffffffffffffffffff16146116e6576040517f08c379a00000000000000000000000000000000000000000000000000000000081526004016116dd90612974565b60405180910390fd5b60016005541461172b576040517f08c379a0000000000000000000000000000000000000000000000000000000008152600401611722906129dc565b60405180910390fd5b60026005819055505f60025f8381526020019081526020015f20905061175382826001611dec565b5f81600301549050815f015f9054906101000a900473ffffffffffffffffffffffffffffffffffffffff1673ffffffffffffffffffffffffffffffffffffffff16837f9cba5b99e13b724917fc10f2f68608f520eec0c9a74c63283b136d6090e94579846002015f9054906101000a900473ffffffffffffffffffffffffffffffffffffffff168486600401600c9054906101000a900463ffffffff168760040160109054906101000a900467ffffffffffffffff166040516118199493929190613030565b60405180910390a35f3373ffffffffffffffffffffffffffffffffffffffff168260405161184690612a7a565b5f6040518083038185875af1925050503d805f8114611880576040519150601f19603f3d011682016040523d82523d5f602084013e611885565b606091505b50509050806118c9576040517f08c379a00000000000000000000000000000000000000000000000000000000081526004016118c0906130bd565b60405180910390fd5b505050600160058190555050565b5f60025f8381526020019081526020015f2090503373ffffffffffffffffffffffffffffffffffffffff16815f015f9054906101000a900473ffffffffffffffffffffffffffffffffffffffff1673ffffffffffffffffffffffffffffffffffffffff161461197b576040517f08c379a000000000000000000000000000000000000000000000000000000000815260040161197290612e2c565b60405180910390fd5b5f600381111561198e5761198d61238a565b5b816006015f9054906101000a900460ff1660038111156119b1576119b061238a565b5b146119f1576040517f08c379a00000000000000000000000000000000000000000000000000000000081526004016119e890613125565b60405180910390fd5b6001816006015f6101000a81548160ff02191690836003811115611a1857611a1761238a565b5b0217905550817f0cff6495091dd347736117c43e5a51e665d061cd77fd8fad68fbedbf2b53c51e6001604051611a4e9190613152565b60405180910390a25050565b5f5f9054906101000a900473ffffffffffffffffffffffffffffffffffffffff1681565b5f600480549050905090565b5f60025f8381526020019081526020015f2090503373ffffffffffffffffffffffffffffffffffffffff16815f015f9054906101000a900473ffffffffffffffffffffffffffffffffffffffff1673ffffffffffffffffffffffffffffffffffffffff1614611b2e576040517f08c379a0000000000000000000000000000000000000000000000000000000008152600401611b2590612e2c565b60405180910390fd5b60016003811115611b4257611b4161238a565b5b816006015f9054906101000a900460ff166003811115611b6557611b6461238a565b5b14611ba5576040517f08c379a0000000000000000000000000000000000000000000000000000000008152600401611b9c906131b5565b60405180910390fd5b806003015481600501541015611bf0576040517f08c379a0000000000000000000000000000000000000000000000000000000008152600401611be79061321d565b60405180910390fd5b5f816006015f6101000a81548160ff02191690836003811115611c1657611c1561238a565b5b0217905550428160040160109054906101000a900467ffffffffffffffff1667ffffffffffffffff161015611c7157428160040160106101000a81548167ffffffffffffffff021916908367ffffffffffffffff1602179055505b817f0cff6495091dd347736117c43e5a51e665d061cd77fd8fad68fbedbf2b53c51e5f604051611ca19190613152565b60405180910390a25050565b60605f6004805490509050808410611d10575f67ffffffffffffffff811115611cd957611cd861323b565b5b604051908082528060200260200182016040528015611d075781602001602082028036833780820191505090505b50915050611de6565b5f8385611d1d9190612f47565b905081811115611d2b578190505b8481611d379190613268565b67ffffffffffffffff811115611d5057611d4f61323b565b5b604051908082528060200260200182016040528015611d7e5781602001602082028036833780820191505090505b5092505f8590505b81811015611de25760048181548110611da257611da161329b565b5b905f5260205f200154848783611db89190613268565b81518110611dc957611dc861329b565b5b6020026020010181815250508080600101915050611d86565b5050505b92915050565b5f73ffffffffffffffffffffffffffffffffffffffff16825f015f9054906101000a900473ffffffffffffffffffffffffffffffffffffffff1673ffffffffffffffffffffffffffffffffffffffff1603611e7c576040517f08c379a0000000000000000000000000000000000000000000000000000000008152600401611e7390613312565b60405180910390fd5b806001811115611e8f57611e8e61238a565b5b825f0160149054906101000a900460ff166001811115611eb257611eb161238a565b5b14611ef2576040517f08c379a0000000000000000000000000000000000000000000000000000000008152600401611ee99061337a565b60405180910390fd5b5f6003811115611f0557611f0461238a565b5b826006015f9054906101000a900460ff166003811115611f2857611f2761238a565b5b14611f68576040517f08c379a0000000000000000000000000000000000000000000000000000000008152600401611f5f90613125565b60405180910390fd5b8160040160109054906101000a900467ffffffffffffffff1667ffffffffffffffff16421015611fcd576040517f08c379a0000000000000000000000000000000000000000000000000000000008152600401611fc4906133e2565b60405180910390fd5b816003015482600501541015612018576040517f08c379a000000000000000000000000000000000000000000000000000000000815260040161200f9061321d565b60405180910390fd5b8160030154826005015f82825461202f9190613268565b92505081905550600182600401600c8282829054906101000a900463ffffffff1661205a9190613400565b92506101000a81548163ffffffff021916908363ffffffff160217905550816004015f9054906101000a900467ffffffffffffffff164261209b9190613437565b8260040160106101000a81548167ffffffffffffffff021916908367ffffffffffffffff1602179055505f5f8360040160089054906101000a900463ffffffff1663ffffffff161415801561212457508260040160089054906101000a900463ffffffff1663ffffffff1683600401600c9054906101000a900463ffffffff1663ffffffff1610155b90505f83600301548460050154109050818061213d5750805b156121a8576002846006015f6101000a81548160ff021916908360038111156121695761216861238a565b5b0217905550847f0cff6495091dd347736117c43e5a51e665d061cd77fd8fad68fbedbf2b53c51e600260405161219f9190613152565b60405180910390a25b5050505050565b6040518061018001604052805f73ffffffffffffffffffffffffffffffffffffffff1681526020015f60018111156121ea576121e961238a565b5b81526020015f73ffffffffffffffffffffffffffffffffffffffff1681526020015f73ffffffffffffffffffffffffffffffffffffffff1681526020015f81526020015f67ffffffffffffffff1681526020015f63ffffffff1681526020015f63ffffffff1681526020015f67ffffffffffffffff1681526020015f81526020015f600381111561227e5761227d61238a565b5b81526020015f67ffffffffffffffff1681525090565b5f5ffd5b5f73ffffffffffffffffffffffffffffffffffffffff82169050919050565b5f6122c182612298565b9050919050565b6122d1816122b7565b81146122db575f5ffd5b50565b5f813590506122ec816122c8565b92915050565b5f6020828403121561230757612306612294565b5b5f612314848285016122de565b91505092915050565b5f819050919050565b61232f8161231d565b8114612339575f5ffd5b50565b5f8135905061234a81612326565b92915050565b5f6020828403121561236557612364612294565b5b5f6123728482850161233c565b91505092915050565b612384816122b7565b82525050565b7f4e487b71000000000000000000000000000000000000000000000000000000005f52602160045260245ffd5b600281106123c8576123c761238a565b5b50565b5f8190506123d8826123b7565b919050565b5f6123e7826123cb565b9050919050565b6123f7816123dd565b82525050565b5f819050919050565b61240f816123fd565b82525050565b5f67ffffffffffffffff82169050919050565b61243181612415565b82525050565b5f63ffffffff82169050919050565b61244f81612437565b82525050565b600481106124665761246561238a565b5b50565b5f81905061247682612455565b919050565b5f61248582612469565b9050919050565b6124958161247b565b82525050565b61018082015f8201516124b05f85018261237b565b5060208201516124c360208501826123ee565b5060408201516124d6604085018261237b565b5060608201516124e9606085018261237b565b5060808201516124fc6080850182612406565b5060a082015161250f60a0850182612428565b5060c082015161252260c0850182612446565b5060e082015161253560e0850182612446565b5061010082015161254a610100850182612428565b5061012082015161255f610120850182612406565b5061014082015161257461014085018261248c565b50610160820151612589610160850182612428565b50505050565b5f610180820190506125a35f83018461249b565b92915050565b5f81519050919050565b5f82825260208201905092915050565b5f819050602082019050919050565b6125db8161231d565b82525050565b5f6125ec83836125d2565b60208301905092915050565b5f602082019050919050565b5f61260e826125a9565b61261881856125b3565b9350612623836125c3565b805f5b8381101561265357815161263a88826125e1565b9750612645836125f8565b925050600181019050612626565b5085935050505092915050565b5f6020820190508181035f8301526126788184612604565b905092915050565b612689816123fd565b8114612693575f5ffd5b50565b5f813590506126a481612680565b92915050565b600281106126b6575f5ffd5b50565b5f813590506126c7816126aa565b92915050565b6126d681612415565b81146126e0575f5ffd5b50565b5f813590506126f1816126cd565b92915050565b61270081612437565b811461270a575f5ffd5b50565b5f8135905061271b816126f7565b92915050565b5f5f5f5f5f5f5f60e0888a03121561273c5761273b612294565b5b5f6127498a828b01612696565b975050602061275a8a828b016126b9565b965050604061276b8a828b016122de565b955050606061277c8a828b016122de565b945050608061278d8a828b01612696565b93505060a061279e8a828b016126e3565b92505060c06127af8a828b0161270d565b91505092959891949750929550565b6127c78161231d565b82525050565b5f6020820190506127e05f8301846127be565b92915050565b6127ef816122b7565b82525050565b5f6020820190506128085f8301846127e6565b92915050565b5f5f6040838503121561282457612823612294565b5b5f612831858286016122de565b925050602061284285828601612696565b9150509250929050565b612855816123fd565b82525050565b5f60208201905061286e5f83018461284c565b92915050565b5f5f6040838503121561288a57612889612294565b5b5f61289785828601612696565b92505060206128a885828601612696565b9150509250929050565b5f82825260208201905092915050565b7f5753523a206e6f742061646d696e0000000000000000000000000000000000005f82015250565b5f6128f6600e836128b2565b9150612901826128c2565b602082019050919050565b5f6020820190508181035f830152612923816128ea565b9050919050565b7f5753523a206e6f74206578656375746f720000000000000000000000000000005f82015250565b5f61295e6011836128b2565b91506129698261292a565b602082019050919050565b5f6020820190508181035f83015261298b81612952565b9050919050565b7f5753523a207265656e7472616e740000000000000000000000000000000000005f82015250565b5f6129c6600e836128b2565b91506129d182612992565b602082019050919050565b5f6020820190508181035f8301526129f3816129ba565b9050919050565b612a0381612437565b82525050565b612a1281612415565b82525050565b5f606082019050612a2b5f83018661284c565b612a3860208301856129fa565b612a456040830184612a09565b949350505050565b5f81905092915050565b50565b5f612a655f83612a4d565b9150612a7082612a57565b5f82019050919050565b5f612a8482612a5a565b9150819050919050565b7f5753523a207472616e73666572206661696c65640000000000000000000000005f82015250565b5f612ac26014836128b2565b9150612acd82612a8e565b602082019050919050565b5f6020820190508181035f830152612aef81612ab6565b9050919050565b7f5753523a207a65726f20616d6f756e74000000000000000000000000000000005f82015250565b5f612b2a6010836128b2565b9150612b3582612af6565b602082019050919050565b5f6020820190508181035f830152612b5781612b1e565b9050919050565b7f5753523a207a65726f20696e74657276616c00000000000000000000000000005f82015250565b5f612b926012836128b2565b9150612b9d82612b5e565b602082019050919050565b5f6020820190508181035f830152612bbf81612b86565b9050919050565b7f5753523a20756e64657266756e646564000000000000000000000000000000005f82015250565b5f612bfa6010836128b2565b9150612c0582612bc6565b602082019050919050565b5f6020820190508181035f830152612c2781612bee565b9050919050565b7f5753523a206e6f20726563697069656e740000000000000000000000000000005f82015250565b5f612c626011836128b2565b9150612c6d82612c2e565b602082019050919050565b5f6020820190508181035f830152612c8f81612c56565b9050919050565b7f5753523a206e6f20746f6b656e4f7574000000000000000000000000000000005f82015250565b5f612cca6010836128b2565b9150612cd582612c96565b602082019050919050565b5f6020820190508181035f830152612cf781612cbe565b9050919050565b7f5753523a206964206578697374730000000000000000000000000000000000005f82015250565b5f612d32600e836128b2565b9150612d3d82612cfe565b602082019050919050565b5f6020820190508181035f830152612d5f81612d26565b9050919050565b612d6f816123dd565b82525050565b5f60e082019050612d885f83018a612d66565b612d9560208301896127e6565b612da260408301886127e6565b612daf606083018761284c565b612dbc6080830186612a09565b612dc960a08301856129fa565b612dd660c083018461284c565b98975050505050505050565b7f5753523a206e6f74206f776e65720000000000000000000000000000000000005f82015250565b5f612e16600e836128b2565b9150612e2182612de2565b602082019050919050565b5f6020820190508181035f830152612e4381612e0a565b9050919050565b7f5753523a20636c6f7365640000000000000000000000000000000000000000005f82015250565b5f612e7e600b836128b2565b9150612e8982612e4a565b602082019050919050565b5f6020820190508181035f830152612eab81612e72565b9050919050565b7f5753523a207a65726f00000000000000000000000000000000000000000000005f82015250565b5f612ee66009836128b2565b9150612ef182612eb2565b602082019050919050565b5f6020820190508181035f830152612f1381612eda565b9050919050565b7f4e487b71000000000000000000000000000000000000000000000000000000005f52601160045260245ffd5b5f612f51826123fd565b9150612f5c836123fd565b9250828201905080821115612f7457612f73612f1a565b5b92915050565b5f604082019050612f8d5f83018561284c565b612f9a602083018461284c565b9392505050565b7f5753523a20726566756e64206661696c656400000000000000000000000000005f82015250565b5f612fd56012836128b2565b9150612fe082612fa1565b602082019050919050565b5f6020820190508181035f83015261300281612fc9565b9050919050565b5f60408201905061301c5f8301856127e6565b613029602083018461284c565b9392505050565b5f6080820190506130435f8301876127e6565b613050602083018661284c565b61305d60408301856129fa565b61306a6060830184612a09565b95945050505050565b7f5753523a2072656c65617365206661696c6564000000000000000000000000005f82015250565b5f6130a76013836128b2565b91506130b282613073565b602082019050919050565b5f6020820190508181035f8301526130d48161309b565b9050919050565b7f5753523a206e6f742061637469766500000000000000000000000000000000005f82015250565b5f61310f600f836128b2565b915061311a826130db565b602082019050919050565b5f6020820190508181035f83015261313c81613103565b9050919050565b61314c8161247b565b82525050565b5f6020820190506131655f830184613143565b92915050565b7f5753523a206e6f742070617573656400000000000000000000000000000000005f82015250565b5f61319f600f836128b2565b91506131aa8261316b565b602082019050919050565b5f6020820190508181035f8301526131cc81613193565b9050919050565b7f5753523a20696e73756666696369656e742062616c616e6365000000000000005f82015250565b5f6132076019836128b2565b9150613212826131d3565b602082019050919050565b5f6020820190508181035f830152613234816131fb565b9050919050565b7f4e487b71000000000000000000000000000000000000000000000000000000005f52604160045260245ffd5b5f613272826123fd565b915061327d836123fd565b925082820390508181111561329557613294612f1a565b5b92915050565b7f4e487b71000000000000000000000000000000000000000000000000000000005f52603260045260245ffd5b7f5753523a206e6f207374726174656779000000000000000000000000000000005f82015250565b5f6132fc6010836128b2565b9150613307826132c8565b602082019050919050565b5f6020820190508181035f830152613329816132f0565b9050919050565b7f5753523a2077726f6e67206b696e6400000000000000000000000000000000005f82015250565b5f613364600f836128b2565b915061336f82613330565b602082019050919050565b5f6020820190508181035f83015261339181613358565b9050919050565b7f5753523a206e6f742064756500000000000000000000000000000000000000005f82015250565b5f6133cc600c836128b2565b91506133d782613398565b602082019050919050565b5f6020820190508181035f8301526133f9816133c0565b9050919050565b5f61340a82612437565b915061341583612437565b9250828201905063ffffffff81111561343157613430612f1a565b5b92915050565b5f61344182612415565b915061344c83612415565b9250828201905067ffffffffffffffff81111561346c5761346b612f1a565b5b9291505056fea2646970667358221220a8cbdba898d897065fa470d0f4f2d6d8e4b89fa06f817ab16db2e02e24a2c79a64736f6c634300081e0033","linkReferences":{}},"methodIdentifiers":{"admin()":"f851a440","allIds(uint256,uint256)":"ff822a1b","cancel(bytes32)":"c4d252f5","create(uint256,uint8,address,address,uint256,uint64,uint32)":"90713f30","executePayment(bytes32)":"418bb260","executor()":"c34c08e5","fund(bytes32)":"bf14c119","getStrategy(bytes32)":"28c84bbd","getStrategyIds(address)":"545b70dc","pause(bytes32)":"ed56531a","releaseForSwap(bytes32)":"d9ec992b","resume(bytes32)":"fa7a2962","setExecutor(address)":"1c3c0ea8","strategyId(address,uint256)":"d7c0a571","totalStrategies()":"f96d7b80"},"id":0}