{"abi":[{"type":"function","name":"addressToSlug","inputs":[{"name":"","type":"address","internalType":"address"}],"outputs":[{"name":"","type":"string","internalType":"string"}],"stateMutability":"view"},{"type":"function","name":"isAvailable","inputs":[{"name":"slug","type":"string","internalType":"string"}],"outputs":[{"name":"","type":"bool","internalType":"bool"}],"stateMutability":"view"},{"type":"function","name":"register","inputs":[{"name":"slug","type":"string","internalType":"string"}],"outputs":[],"stateMutability":"nonpayable"},{"type":"function","name":"slugToAddress","inputs":[{"name":"","type":"string","internalType":"string"}],"outputs":[{"name":"","type":"address","internalType":"address"}],"stateMutability":"view"},{"type":"event","name":"SlugRegistered","inputs":[{"name":"slug","type":"string","indexed":true,"internalType":"string"},{"name":"owner","type":"address","indexed":true,"internalType":"address"}],"anonymous":false}],"bytecode":{"object":"0x6080604052348015600e575f5ffd5b50610f178061001c5f395ff3fe608060405234801561000f575f5ffd5b506004361061004a575f3560e01c8063965306aa1461004e578063ab9dfb9e1461007e578063d31d527d146100ae578063f2c298be146100de575b5f5ffd5b6100686004803603810190610063919061071e565b6100fa565b6040516100759190610783565b60405180910390f35b610098600480360381019061009391906108d4565b610187565b6040516100a5919061095a565b60405180910390f35b6100c860048036038101906100c3919061099d565b6101ce565b6040516100d59190610a28565b60405180910390f35b6100f860048036038101906100f3919061071e565b610269565b005b5f61010583836104f2565b610111575f9050610181565b5f73ffffffffffffffffffffffffffffffffffffffff165f8484604051610139929190610a76565b90815260200160405180910390205f9054906101000a900473ffffffffffffffffffffffffffffffffffffffff1673ffffffffffffffffffffffffffffffffffffffff161490505b92915050565b5f818051602081018201805184825260208301602085012081835280955050505050505f915054906101000a900473ffffffffffffffffffffffffffffffffffffffff1681565b6001602052805f5260405f205f9150905080546101ea90610abb565b80601f016020809104026020016040519081016040528092919081815260200182805461021690610abb565b80156102615780601f1061023857610100808354040283529160200191610261565b820191905f5260205f20905b81548152906001019060200180831161024457829003601f168201915b505050505081565b61027382826104f2565b6102b2576040517f08c379a00000000000000000000000000000000000000000000000000000000081526004016102a990610b35565b60405180910390fd5b5f73ffffffffffffffffffffffffffffffffffffffff165f83836040516102da929190610a76565b90815260200160405180910390205f9054906101000a900473ffffffffffffffffffffffffffffffffffffffff1673ffffffffffffffffffffffffffffffffffffffff161461035e576040517f08c379a000000000000000000000000000000000000000000000000000000000815260040161035590610b9d565b60405180910390fd5b5f60015f3373ffffffffffffffffffffffffffffffffffffffff1673ffffffffffffffffffffffffffffffffffffffff1681526020019081526020015f2080546103a790610abb565b9050146103e9576040517f08c379a00000000000000000000000000000000000000000000000000000000081526004016103e090610c05565b60405180910390fd5b335f83836040516103fb929190610a76565b90815260200160405180910390205f6101000a81548173ffffffffffffffffffffffffffffffffffffffff021916908373ffffffffffffffffffffffffffffffffffffffff160217905550818160015f3373ffffffffffffffffffffffffffffffffffffffff1673ffffffffffffffffffffffffffffffffffffffff1681526020019081526020015f209182610492929190610de7565b503373ffffffffffffffffffffffffffffffffffffffff1682826040516104ba929190610a76565b60405180910390207f2f95b3f3a45bdebb679d1345f7743c2bd0e43eab8f395baec0d832870aa1c6bc60405160405180910390a35050565b5f5f83838080601f0160208091040260200160405190810160405280939291908181526020018383808284375f81840152601f19601f8201169050808301925050505050505090505f81519050600381108061054e5750602081115b1561055d575f925050506106a6565b5f5f90505b8181101561069e575f83828151811061057e5761057d610eb4565b5b602001015160f81c60f81b90505f606160f81b827effffffffffffffffffffffffffffffffffffffffffffffffffffffffffffff1916101580156105e85750607a60f81b827effffffffffffffffffffffffffffffffffffffffffffffffffffffffffffff191611155b8061064b5750603060f81b827effffffffffffffffffffffffffffffffffffffffffffffffffffffffffffff19161015801561064a5750603960f81b827effffffffffffffffffffffffffffffffffffffffffffffffffffffffffffff191611155b5b8061067b5750605f60f81b827effffffffffffffffffffffffffffffffffffffffffffffffffffffffffffff1916145b90508061068f575f955050505050506106a6565b50508080600101915050610562565b506001925050505b92915050565b5f604051905090565b5f5ffd5b5f5ffd5b5f5ffd5b5f5ffd5b5f5ffd5b5f5f83601f8401126106de576106dd6106bd565b5b8235905067ffffffffffffffff8111156106fb576106fa6106c1565b5b602083019150836001820283011115610717576107166106c5565b5b9250929050565b5f5f60208385031215610734576107336106b5565b5b5f83013567ffffffffffffffff811115610751576107506106b9565b5b61075d858286016106c9565b92509250509250929050565b5f8115159050919050565b61077d81610769565b82525050565b5f6020820190506107965f830184610774565b92915050565b5f5ffd5b5f601f19601f8301169050919050565b7f4e487b71000000000000000000000000000000000000000000000000000000005f52604160045260245ffd5b6107e6826107a0565b810181811067ffffffffffffffff82111715610805576108046107b0565b5b80604052505050565b5f6108176106ac565b905061082382826107dd565b919050565b5f67ffffffffffffffff821115610842576108416107b0565b5b61084b826107a0565b9050602081019050919050565b828183375f83830152505050565b5f61087861087384610828565b61080e565b9050828152602081018484840111156108945761089361079c565b5b61089f848285610858565b509392505050565b5f82601f8301126108bb576108ba6106bd565b5b81356108cb848260208601610866565b91505092915050565b5f602082840312156108e9576108e86106b5565b5b5f82013567ffffffffffffffff811115610906576109056106b9565b5b610912848285016108a7565b91505092915050565b5f73ffffffffffffffffffffffffffffffffffffffff82169050919050565b5f6109448261091b565b9050919050565b6109548161093a565b82525050565b5f60208201905061096d5f83018461094b565b92915050565b61097c8161093a565b8114610986575f5ffd5b50565b5f8135905061099781610973565b92915050565b5f602082840312156109b2576109b16106b5565b5b5f6109bf84828501610989565b91505092915050565b5f81519050919050565b5f82825260208201905092915050565b8281835e5f83830152505050565b5f6109fa826109c8565b610a0481856109d2565b9350610a148185602086016109e2565b610a1d816107a0565b840191505092915050565b5f6020820190508181035f830152610a4081846109f0565b905092915050565b5f81905092915050565b5f610a5d8385610a48565b9350610a6a838584610858565b82840190509392505050565b5f610a82828486610a52565b91508190509392505050565b7f4e487b71000000000000000000000000000000000000000000000000000000005f52602260045260245ffd5b5f6002820490506001821680610ad257607f821691505b602082108103610ae557610ae4610a8e565b5b50919050565b7f496e76616c696420736c756700000000000000000000000000000000000000005f82015250565b5f610b1f600c836109d2565b9150610b2a82610aeb565b602082019050919050565b5f6020820190508181035f830152610b4c81610b13565b9050919050565b7f536c756720616c72656164792074616b656e00000000000000000000000000005f82015250565b5f610b876012836109d2565b9150610b9282610b53565b602082019050919050565b5f6020820190508181035f830152610bb481610b7b565b9050919050565b7f4164647265737320616c726561647920686173206120736c75670000000000005f82015250565b5f610bef601a836109d2565b9150610bfa82610bbb565b602082019050919050565b5f6020820190508181035f830152610c1c81610be3565b9050919050565b5f82905092915050565b5f819050815f5260205f209050919050565b5f6020601f8301049050919050565b5f82821b905092915050565b5f60088302610c897fffffffffffffffffffffffffffffffffffffffffffffffffffffffffffffffff82610c4e565b610c938683610c4e565b95508019841693508086168417925050509392505050565b5f819050919050565b5f819050919050565b5f610cd7610cd2610ccd84610cab565b610cb4565b610cab565b9050919050565b5f819050919050565b610cf083610cbd565b610d04610cfc82610cde565b848454610c5a565b825550505050565b5f5f905090565b610d1b610d0c565b610d26818484610ce7565b505050565b5f5b82811015610d4c57610d415f828401610d13565b600181019050610d2d565b505050565b601f821115610d9f5782821115610d9e57610d6b81610c2d565b610d7483610c3f565b610d7d85610c3f565b6020861015610d8a575f90505b808301610d9982840382610d2b565b505050505b5b505050565b5f82821c905092915050565b5f610dbf5f1984600802610da4565b1980831691505092915050565b5f610dd78383610db0565b9150826002028217905092915050565b610df18383610c23565b67ffffffffffffffff811115610e0a57610e096107b0565b5b610e148254610abb565b610e1f828285610d51565b5f601f831160018114610e4c575f8415610e3a578287013590505b610e448582610dcc565b865550610eab565b601f198416610e5a86610c2d565b5f5b82811015610e8157848901358255600182019150602085019450602081019050610e5c565b86831015610e9e5784890135610e9a601f891682610db0565b8355505b6001600288020188555050505b50505050505050565b7f4e487b71000000000000000000000000000000000000000000000000000000005f52603260045260245ffdfea2646970667358221220515785a51786b49ccb99f3bef07d2e000cdc9d2d5cd51b6e18d020f56447c50b64736f6c63430008230033","linkReferences":{}},"methodIdentifiers":{"addressToSlug(address)":"d31d527d","isAvailable(string)":"965306aa","register(string)":"f2c298be","slugToAddress(string)":"ab9dfb9e"},"id":0}