{"abi":[{"type":"constructor","inputs":[],"stateMutability":"nonpayable"},{"type":"function","name":"addressToSlug","inputs":[{"name":"","type":"address","internalType":"address"}],"outputs":[{"name":"","type":"string","internalType":"string"}],"stateMutability":"view"},{"type":"function","name":"isAvailable","inputs":[{"name":"slug","type":"string","internalType":"string"}],"outputs":[{"name":"","type":"bool","internalType":"bool"}],"stateMutability":"view"},{"type":"function","name":"register","inputs":[{"name":"slug","type":"string","internalType":"string"}],"outputs":[],"stateMutability":"nonpayable"},{"type":"function","name":"registerFor","inputs":[{"name":"owner","type":"address","internalType":"address"},{"name":"slug","type":"string","internalType":"string"}],"outputs":[],"stateMutability":"nonpayable"},{"type":"function","name":"registrar","inputs":[],"outputs":[{"name":"","type":"address","internalType":"address"}],"stateMutability":"view"},{"type":"function","name":"slugToAddress","inputs":[{"name":"","type":"string","internalType":"string"}],"outputs":[{"name":"","type":"address","internalType":"address"}],"stateMutability":"view"},{"type":"event","name":"SlugRegistered","inputs":[{"name":"slug","type":"string","indexed":true,"internalType":"string"},{"name":"owner","type":"address","indexed":true,"internalType":"address"}],"anonymous":false}],"bytecode":{"object":"0x60a0604052348015600e575f5ffd5b503373ffffffffffffffffffffffffffffffffffffffff1660808173ffffffffffffffffffffffffffffffffffffffff16815250506080516110fe6100625f395f818161014c015261017001526110fe5ff3fe608060405234801561000f575f5ffd5b5060043610610060575f3560e01c80632b20e39714610064578063498163fd14610082578063965306aa1461009e578063ab9dfb9e146100ce578063d31d527d146100fe578063f2c298be1461012e575b5f5ffd5b61006c61014a565b604051610079919061080d565b60405180910390f35b61009c600480360381019061009791906108c2565b61016e565b005b6100b860048036038101906100b3919061091f565b61020c565b6040516100c59190610984565b60405180910390f35b6100e860048036038101906100e39190610ad5565b610299565b6040516100f5919061080d565b60405180910390f35b61011860048036038101906101139190610b1c565b6102e0565b6040516101259190610ba7565b60405180910390f35b6101486004803603810190610143919061091f565b61037b565b005b7f000000000000000000000000000000000000000000000000000000000000000081565b7f000000000000000000000000000000000000000000000000000000000000000073ffffffffffffffffffffffffffffffffffffffff163373ffffffffffffffffffffffffffffffffffffffff16146101fc576040517f08c379a00000000000000000000000000000000000000000000000000000000081526004016101f390610c11565b60405180910390fd5b61020782828561038a565b505050565b5f6102178383610614565b610223575f9050610293565b5f73ffffffffffffffffffffffffffffffffffffffff165f848460405161024b929190610c5d565b90815260200160405180910390205f9054906101000a900473ffffffffffffffffffffffffffffffffffffffff1673ffffffffffffffffffffffffffffffffffffffff161490505b92915050565b5f818051602081018201805184825260208301602085012081835280955050505050505f915054906101000a900473ffffffffffffffffffffffffffffffffffffffff1681565b6001602052805f5260405f205f9150905080546102fc90610ca2565b80601f016020809104026020016040519081016040528092919081815260200182805461032890610ca2565b80156103735780601f1061034a57610100808354040283529160200191610373565b820191905f5260205f20905b81548152906001019060200180831161035657829003601f168201915b505050505081565b61038682823361038a565b5050565b6103948383610614565b6103d3576040517f08c379a00000000000000000000000000000000000000000000000000000000081526004016103ca90610d1c565b60405180910390fd5b5f73ffffffffffffffffffffffffffffffffffffffff165f84846040516103fb929190610c5d565b90815260200160405180910390205f9054906101000a900473ffffffffffffffffffffffffffffffffffffffff1673ffffffffffffffffffffffffffffffffffffffff161461047f576040517f08c379a000000000000000000000000000000000000000000000000000000000815260040161047690610d84565b60405180910390fd5b5f60015f8373ffffffffffffffffffffffffffffffffffffffff1673ffffffffffffffffffffffffffffffffffffffff1681526020019081526020015f2080546104c890610ca2565b90501461050a576040517f08c379a000000000000000000000000000000000000000000000000000000000815260040161050190610dec565b60405180910390fd5b805f848460405161051c929190610c5d565b90815260200160405180910390205f6101000a81548173ffffffffffffffffffffffffffffffffffffffff021916908373ffffffffffffffffffffffffffffffffffffffff160217905550828260015f8473ffffffffffffffffffffffffffffffffffffffff1673ffffffffffffffffffffffffffffffffffffffff1681526020019081526020015f2091826105b3929190610fce565b508073ffffffffffffffffffffffffffffffffffffffff1683836040516105db929190610c5d565b60405180910390207f2f95b3f3a45bdebb679d1345f7743c2bd0e43eab8f395baec0d832870aa1c6bc60405160405180910390a3505050565b5f5f83838080601f0160208091040260200160405190810160405280939291908181526020018383808284375f81840152601f19601f8201169050808301925050505050505090505f8151905060038110806106705750602081115b1561067f575f925050506107c8565b5f5f90505b818110156107c0575f8382815181106106a05761069f61109b565b5b602001015160f81c60f81b90505f606160f81b827effffffffffffffffffffffffffffffffffffffffffffffffffffffffffffff19161015801561070a5750607a60f81b827effffffffffffffffffffffffffffffffffffffffffffffffffffffffffffff191611155b8061076d5750603060f81b827effffffffffffffffffffffffffffffffffffffffffffffffffffffffffffff19161015801561076c5750603960f81b827effffffffffffffffffffffffffffffffffffffffffffffffffffffffffffff191611155b5b8061079d5750605f60f81b827effffffffffffffffffffffffffffffffffffffffffffffffffffffffffffff1916145b9050806107b1575f955050505050506107c8565b50508080600101915050610684565b506001925050505b92915050565b5f73ffffffffffffffffffffffffffffffffffffffff82169050919050565b5f6107f7826107ce565b9050919050565b610807816107ed565b82525050565b5f6020820190506108205f8301846107fe565b92915050565b5f604051905090565b5f5ffd5b5f5ffd5b610840816107ed565b811461084a575f5ffd5b50565b5f8135905061085b81610837565b92915050565b5f5ffd5b5f5ffd5b5f5ffd5b5f5f83601f84011261088257610881610861565b5b8235905067ffffffffffffffff81111561089f5761089e610865565b5b6020830191508360018202830111156108bb576108ba610869565b5b9250929050565b5f5f5f604084860312156108d9576108d861082f565b5b5f6108e68682870161084d565b935050602084013567ffffffffffffffff81111561090757610906610833565b5b6109138682870161086d565b92509250509250925092565b5f5f602083850312156109355761093461082f565b5b5f83013567ffffffffffffffff81111561095257610951610833565b5b61095e8582860161086d565b92509250509250929050565b5f8115159050919050565b61097e8161096a565b82525050565b5f6020820190506109975f830184610975565b92915050565b5f5ffd5b5f601f19601f8301169050919050565b7f4e487b71000000000000000000000000000000000000000000000000000000005f52604160045260245ffd5b6109e7826109a1565b810181811067ffffffffffffffff82111715610a0657610a056109b1565b5b80604052505050565b5f610a18610826565b9050610a2482826109de565b919050565b5f67ffffffffffffffff821115610a4357610a426109b1565b5b610a4c826109a1565b9050602081019050919050565b828183375f83830152505050565b5f610a79610a7484610a29565b610a0f565b905082815260208101848484011115610a9557610a9461099d565b5b610aa0848285610a59565b509392505050565b5f82601f830112610abc57610abb610861565b5b8135610acc848260208601610a67565b91505092915050565b5f60208284031215610aea57610ae961082f565b5b5f82013567ffffffffffffffff811115610b0757610b06610833565b5b610b1384828501610aa8565b91505092915050565b5f60208284031215610b3157610b3061082f565b5b5f610b3e8482850161084d565b91505092915050565b5f81519050919050565b5f82825260208201905092915050565b8281835e5f83830152505050565b5f610b7982610b47565b610b838185610b51565b9350610b93818560208601610b61565b610b9c816109a1565b840191505092915050565b5f6020820190508181035f830152610bbf8184610b6f565b905092915050565b7f4e6f7420617574686f72697a65640000000000000000000000000000000000005f82015250565b5f610bfb600e83610b51565b9150610c0682610bc7565b602082019050919050565b5f6020820190508181035f830152610c2881610bef565b9050919050565b5f81905092915050565b5f610c448385610c2f565b9350610c51838584610a59565b82840190509392505050565b5f610c69828486610c39565b91508190509392505050565b7f4e487b71000000000000000000000000000000000000000000000000000000005f52602260045260245ffd5b5f6002820490506001821680610cb957607f821691505b602082108103610ccc57610ccb610c75565b5b50919050565b7f496e76616c696420736c756700000000000000000000000000000000000000005f82015250565b5f610d06600c83610b51565b9150610d1182610cd2565b602082019050919050565b5f6020820190508181035f830152610d3381610cfa565b9050919050565b7f536c756720616c72656164792074616b656e00000000000000000000000000005f82015250565b5f610d6e601283610b51565b9150610d7982610d3a565b602082019050919050565b5f6020820190508181035f830152610d9b81610d62565b9050919050565b7f4164647265737320616c726561647920686173206120736c75670000000000005f82015250565b5f610dd6601a83610b51565b9150610de182610da2565b602082019050919050565b5f6020820190508181035f830152610e0381610dca565b9050919050565b5f82905092915050565b5f819050815f5260205f209050919050565b5f6020601f8301049050919050565b5f82821b905092915050565b5f60088302610e707fffffffffffffffffffffffffffffffffffffffffffffffffffffffffffffffff82610e35565b610e7a8683610e35565b95508019841693508086168417925050509392505050565b5f819050919050565b5f819050919050565b5f610ebe610eb9610eb484610e92565b610e9b565b610e92565b9050919050565b5f819050919050565b610ed783610ea4565b610eeb610ee382610ec5565b848454610e41565b825550505050565b5f5f905090565b610f02610ef3565b610f0d818484610ece565b505050565b5f5b82811015610f3357610f285f828401610efa565b600181019050610f14565b505050565b601f821115610f865782821115610f8557610f5281610e14565b610f5b83610e26565b610f6485610e26565b6020861015610f71575f90505b808301610f8082840382610f12565b505050505b5b505050565b5f82821c905092915050565b5f610fa65f1984600802610f8b565b1980831691505092915050565b5f610fbe8383610f97565b9150826002028217905092915050565b610fd88383610e0a565b67ffffffffffffffff811115610ff157610ff06109b1565b5b610ffb8254610ca2565b611006828285610f38565b5f601f831160018114611033575f8415611021578287013590505b61102b8582610fb3565b865550611092565b601f19841661104186610e14565b5f5b8281101561106857848901358255600182019150602085019450602081019050611043565b868310156110855784890135611081601f891682610f97565b8355505b6001600288020188555050505b50505050505050565b7f4e487b71000000000000000000000000000000000000000000000000000000005f52603260045260245ffdfea2646970667358221220c41527f3ca9be5004b0af954a8f5dd7386a1c2bf1a6850af23f2b4079de3412964736f6c63430008230033","linkReferences":{}},"methodIdentifiers":{"addressToSlug(address)":"d31d527d","isAvailable(string)":"965306aa","register(string)":"f2c298be","registerFor(address,string)":"498163fd","registrar()":"2b20e397","slugToAddress(string)":"ab9dfb9e"},"id":1}